{
  "contractName": "Application",
  "abi": [
    {
      "inputs": [],
      "stateMutability": "nonpayable",
      "type": "constructor"
    },
    {
      "anonymous": false,
      "inputs": [
        {
          "indexed": false,
          "internalType": "address",
          "name": "pollAddress",
          "type": "address"
        },
        {
          "indexed": false,
          "internalType": "address",
          "name": "ownerAddress",
          "type": "address"
        }
      ],
      "name": "PollCreated",
      "type": "event"
    },
    {
      "inputs": [],
      "name": "nPolls",
      "outputs": [
        {
          "internalType": "uint256",
          "name": "",
          "type": "uint256"
        }
      ],
      "stateMutability": "view",
      "type": "function",
      "constant": true
    },
    {
      "inputs": [],
      "name": "owner",
      "outputs": [
        {
          "internalType": "address",
          "name": "",
          "type": "address"
        }
      ],
      "stateMutability": "view",
      "type": "function",
      "constant": true
    },
    {
      "inputs": [
        {
          "internalType": "uint256",
          "name": "",
          "type": "uint256"
        }
      ],
      "name": "polls",
      "outputs": [
        {
          "internalType": "address",
          "name": "",
          "type": "address"
        }
      ],
      "stateMutability": "view",
      "type": "function",
      "constant": true
    },
    {
      "inputs": [
        {
          "internalType": "string",
          "name": "_title",
          "type": "string"
        },
        {
          "internalType": "string",
          "name": "_description",
          "type": "string"
        },
        {
          "internalType": "string[]",
          "name": "_options",
          "type": "string[]"
        }
      ],
      "name": "createPoll",
      "outputs": [],
      "stateMutability": "nonpayable",
      "type": "function"
    },
    {
      "inputs": [
        {
          "internalType": "uint256",
          "name": "_index",
          "type": "uint256"
        },
        {
          "internalType": "address",
          "name": "_user",
          "type": "address"
        }
      ],
      "name": "getPollOverview",
      "outputs": [
        {
          "internalType": "address",
          "name": "pollAddress",
          "type": "address"
        },
        {
          "internalType": "string",
          "name": "title",
          "type": "string"
        },
        {
          "internalType": "string",
          "name": "description",
          "type": "string"
        },
        {
          "internalType": "address",
          "name": "_owner",
          "type": "address"
        },
        {
          "internalType": "bool",
          "name": "isResultAnnounced",
          "type": "bool"
        },
        {
          "internalType": "uint256",
          "name": "totalVotes",
          "type": "uint256"
        },
        {
          "internalType": "bool",
          "name": "hasUserVoted",
          "type": "bool"
        }
      ],
      "stateMutability": "view",
      "type": "function",
      "constant": true
    }
  ],
  "bytecode": "0x608060405234801561001057600080fd5b50600080546001600160a01b0319163317905561177b806100326000396000f3fe60806040523480156200001157600080fd5b50600436106200005e5760003560e01c80637c5c2cef14620000635780638da5cb5b1462000080578063ac2f007414620000ad578063cfba7a0914620000d9578063f80a3a2814620000f2575b600080fd5b6200006d60025481565b6040519081526020015b60405180910390f35b60005462000094906001600160a01b031681565b6040516001600160a01b03909116815260200162000077565b62000094620000be36600462000687565b6001602052600090815260409020546001600160a01b031681565b620000f0620000ea36600462000772565b6200011e565b005b6200010962000103366004620008a9565b62000354565b6040516200007797969594939291906200093d565b604080516020808201909252600090528351908401207fc5d2460186f7233c927e7db2dcc703c0e500b653ca82273b7bfad8045d85a47090811415620001a25760405162461bcd60e51b81526020600482015260146024820152735469746c652063616e277420626520656d70747960601b60448201526064015b60405180910390fd5b82516020840120811415620001fa5760405162461bcd60e51b815260206004820152601a60248201527f4465736372697074696f6e2063616e277420626520656d707479000000000000604482015260640162000199565b60005b82518110156200028a57818382815181106200021d576200021d6200099f565b6020026020010151805190602001201415620002755760405162461bcd60e51b81526020600482015260166024820152754f7074696f6e732063616e277420626520656d70747960501b604482015260640162000199565b806200028181620009b5565b915050620001fd565b506000338585856040516200029f9062000679565b620002ae9493929190620009df565b604051809103906000f080158015620002cb573d6000803e3d6000fd5b5060028054600090815260016020526040812080546001600160a01b0319166001600160a01b03851617905581549293506200030783620009b5565b9091555050604080516001600160a01b03831681523360208201527f5b850d927499bc55df3941f7c4ae97ab6fce34a21f4df0ab30694f24353445b2910160405180910390a15050505050565b60008281526001602052604080822054905163a3ec138d60e01b81526001600160a01b03848116600483015260609283928592839283928392909116908290829063a3ec138d9060240160206040518083038186803b158015620003b757600080fd5b505afa158015620003cc573d6000803e3d6000fd5b505050506040513d601f19601f82011682018060405250810190620003f2919062000a80565b60008c81526001602052604080822054815163129e754360e21b815291519394506001600160a01b039081169390861692634a79d50c9260048082019391829003018186803b1580156200044557600080fd5b505afa1580156200045a573d6000803e3d6000fd5b505050506040513d6000823e601f3d908101601f1916820160405262000484919081019062000aab565b836001600160a01b0316637284e4166040518163ffffffff1660e01b815260040160006040518083038186803b158015620004be57600080fd5b505afa158015620004d3573d6000803e3d6000fd5b505050506040513d6000823e601f3d908101601f19168201604052620004fd919081019062000aab565b846001600160a01b0316638da5cb5b6040518163ffffffff1660e01b815260040160206040518083038186803b1580156200053757600080fd5b505afa1580156200054c573d6000803e3d6000fd5b505050506040513d601f19601f8201168201806040525081019062000572919062000b2b565b856001600160a01b031663e06447126040518163ffffffff1660e01b815260040160206040518083038186803b158015620005ac57600080fd5b505afa158015620005c1573d6000803e3d6000fd5b505050506040513d601f19601f82011682018060405250810190620005e7919062000a80565b866001600160a01b0316630d15fd776040518163ffffffff1660e01b815260040160206040518083038186803b1580156200062157600080fd5b505afa15801562000636573d6000803e3d6000fd5b505050506040513d601f19601f820116820180604052508101906200065c919062000b4b565b869850985098509850985098509850505092959891949750929550565b610be08062000b6683390190565b6000602082840312156200069a57600080fd5b5035919050565b634e487b7160e01b600052604160045260246000fd5b604051601f8201601f1916810167ffffffffffffffff81118282101715620006e357620006e3620006a1565b604052919050565b600067ffffffffffffffff821115620007085762000708620006a1565b50601f01601f191660200190565b600082601f8301126200072857600080fd5b81356200073f6200073982620006eb565b620006b7565b8181528460208386010111156200075557600080fd5b816020850160208301376000918101602001919091529392505050565b6000806000606084860312156200078857600080fd5b833567ffffffffffffffff80821115620007a157600080fd5b620007af8783880162000716565b9450602091508186013581811115620007c757600080fd5b620007d58882890162000716565b945050604086013581811115620007eb57600080fd5b8601601f81018813620007fd57600080fd5b803582811115620008125762000812620006a1565b8060051b62000823858201620006b7565b918252828101850191858101908b8411156200083e57600080fd5b86850192505b838310156200087f578235868111156200085e5760008081fd5b6200086e8d898389010162000716565b835250918601919086019062000844565b809750505050505050509250925092565b6001600160a01b0381168114620008a657600080fd5b50565b60008060408385031215620008bd57600080fd5b823591506020830135620008d18162000890565b809150509250929050565b60005b83811015620008f9578181015183820152602001620008df565b8381111562000909576000848401525b50505050565b6000815180845262000929816020860160208601620008dc565b601f01601f19169290920160200192915050565b600060018060a01b03808a16835260e060208401526200096160e084018a6200090f565b838103604085015262000975818a6200090f565b9790911660608401525050921515608084015260a0830191909152151560c0909101529392505050565b634e487b7160e01b600052603260045260246000fd5b6000600019821415620009d857634e487b7160e01b600052601160045260246000fd5b5060010190565b6001600160a01b03851681526080602080830182905260009162000a06908401876200090f565b838103604085015262000a1a81876200090f565b905083810360608501528085518083528383019150838160051b84010184880160005b8381101562000a6f57601f1986840301855262000a5c8383516200090f565b9487019492509086019060010162000a3d565b50909b9a5050505050505050505050565b60006020828403121562000a9357600080fd5b8151801515811462000aa457600080fd5b9392505050565b60006020828403121562000abe57600080fd5b815167ffffffffffffffff81111562000ad657600080fd5b8201601f8101841362000ae857600080fd5b805162000af96200073982620006eb565b81815285602083850101111562000b0f57600080fd5b62000b22826020830160208601620008dc565b95945050505050565b60006020828403121562000b3e57600080fd5b815162000aa48162000890565b60006020828403121562000b5e57600080fd5b505191905056fe608060405260006006556000600755600060085560006009553480156200002557600080fd5b5060405162000be038038062000be08339810160408190526200004891620002ad565b600080546001600160a01b0319166001600160a01b03861617905582516200007890600190602086019062000129565b5081516200008e90600290602085019062000129565b50805160065560005b6006548110156200011e576040518060400160405280838381518110620000c257620000c2620003ee565b60209081029190910181015182526000918101829052838252600581526040909120825180519192620000fb9284929091019062000129565b506020919091015160019091015580620001158162000404565b91505062000097565b50505050506200046b565b82805462000137906200042e565b90600052602060002090601f0160209004810192826200015b5760008555620001a6565b82601f106200017657805160ff1916838001178555620001a6565b82800160010185558215620001a6579182015b82811115620001a657825182559160200191906001019062000189565b50620001b4929150620001b8565b5090565b5b80821115620001b45760008155600101620001b9565b634e487b7160e01b600052604160045260246000fd5b604051601f8201601f191681016001600160401b0381118282101715620002105762000210620001cf565b604052919050565b600082601f8301126200022a57600080fd5b81516001600160401b03811115620002465762000246620001cf565b60206200025c601f8301601f19168201620001e5565b82815285828487010111156200027157600080fd5b60005b838110156200029157858101830151828201840152820162000274565b83811115620002a35760008385840101525b5095945050505050565b60008060008060808587031215620002c457600080fd5b84516001600160a01b0381168114620002dc57600080fd5b602086810151919550906001600160401b0380821115620002fc57600080fd5b6200030a89838a0162000218565b955060408801519150808211156200032157600080fd5b6200032f89838a0162000218565b945060608801519150808211156200034657600080fd5b818801915088601f8301126200035b57600080fd5b815181811115620003705762000370620001cf565b8060051b62000381858201620001e5565b918252838101850191858101908c8411156200039c57600080fd5b86860192505b83831015620003dd57825185811115620003bc5760008081fd5b620003cc8e89838a010162000218565b8352509186019190860190620003a2565b999c989b5096995050505050505050565b634e487b7160e01b600052603260045260246000fd5b60006000198214156200042757634e487b7160e01b600052601160045260246000fd5b5060010190565b600181811c908216806200044357607f821691505b602082108114156200046557634e487b7160e01b600052602260045260246000fd5b50919050565b610765806200047b6000396000f3fe608060405234801561001057600080fd5b50600436106100b45760003560e01c80638da5cb5b116100715780638da5cb5b14610119578063a3ec138d14610144578063b0d2616814610177578063b6cef8d214610198578063e0644712146101a1578063f4e11bbe146101ae57600080fd5b80630121b93f146100b95780630cf0ad65146100ce5780630d15fd77146100ea5780634a79d50c146100f35780637284e41614610108578063777c3acf14610110575b600080fd5b6100cc6100c7366004610544565b6101b6565b005b6100d760065481565b6040519081526020015b60405180910390f35b6100d760095481565b6100fb6102fd565b6040516100e191906105aa565b6100fb61038b565b6100d760085481565b60005461012c906001600160a01b031681565b6040516001600160a01b0390911681526020016100e1565b6101676101523660046105c4565b60046020526000908152604090205460ff1681565b60405190151581526020016100e1565b61018a610185366004610544565b610398565b6040516100e19291906105ed565b6100d760075481565b6003546101679060ff1681565b6100cc61043c565b60035460ff161561021c5760405162461bcd60e51b815260206004820152602560248201527f43616e6e6f7420766f746520616674657220726573756c7420616e6e6f756e63604482015264195b595b9d60da1b60648201526084015b60405180910390fd5b3360009081526004602052604090205460ff16156102755760405162461bcd60e51b8152602060048201526016602482015275165bdd481a185d9948185b1c9958591e481d9bdd195960521b6044820152606401610213565b60008181526005602052604081206001018054916102928361060f565b909155505060085460008281526005602052604090206001015411156102cd5760008181526005602052604090206001015460085560078190555b336000908152600460205260408120805460ff1916600117905560098054916102f58361060f565b919050555050565b6001805461030a90610638565b80601f016020809104026020016040519081016040528092919081815260200182805461033690610638565b80156103835780601f1061035857610100808354040283529160200191610383565b820191906000526020600020905b81548152906001019060200180831161036657829003601f168201915b505050505081565b6002805461030a90610638565b6005602052600090815260409020805481906103b390610638565b80601f01602080910402602001604051908101604052809291908181526020018280546103df90610638565b801561042c5780601f106104015761010080835404028352916020019161042c565b820191906000526020600020905b81548152906001019060200180831161040f57829003601f168201915b5050505050908060010154905082565b60035460ff161561048f5760405162461bcd60e51b815260206004820152601860248201527f526573756c7420616c726561647920616e6e6f756e63656400000000000000006044820152606401610213565b6000546001600160a01b031633146104e95760405162461bcd60e51b815260206004820152601e60248201527f4f6e6c79206f776e65722063616e20616e6e6f756e636520726573756c7400006044820152606401610213565b6003805460ff191660011790556007546000908152600560205260409081902060085491517f7fc6431e745134caccb8fdee54ab56186cdc3d79b57b3a4580eb8745a9d5e77d9261053a9291610673565b60405180910390a1565b60006020828403121561055657600080fd5b5035919050565b6000815180845260005b8181101561058357602081850181015186830182015201610567565b81811115610595576000602083870101525b50601f01601f19169290920160200192915050565b6020815260006105bd602083018461055d565b9392505050565b6000602082840312156105d657600080fd5b81356001600160a01b03811681146105bd57600080fd5b604081526000610600604083018561055d565b90508260208301529392505050565b600060001982141561063157634e487b7160e01b600052601160045260246000fd5b5060010190565b600181811c9082168061064c57607f821691505b6020821081141561066d57634e487b7160e01b600052602260045260246000fd5b50919050565b60408152604080820152600080845481600182811c91508083168061069957607f831692505b60208084108214156106b957634e487b7160e01b86526022600452602486fd5b6080880184905260a088018280156106d857600181146106e957610714565b60ff19871682528282019750610714565b60008c81526020902060005b8781101561070e578154848201529086019084016106f5565b83019850505b5050989091015460608701525050509390910191909152509056fea2646970667358221220e567c80423602343a1b05938f32472341f5921a95dfc2415ec0354dc63b26c8b64736f6c63430008090033a2646970667358221220553fb38768cfcbdc8bba42b2051fe24fb5a6bf006ba7a1ce9e00b0bc2c10842564736f6c63430008090033",
  "immutableReferences": {},
  "source": "// SPDX-License-Identifier: MIT\r\npragma solidity ^0.8.6;\r\n\r\nimport \"./Poll.sol\";\r\n\r\ncontract Application {\r\n    // Owner\r\n    address public owner;\r\n\r\n    // To store all polls\r\n    mapping(uint256 => address) public polls;\r\n\r\n    // Total number of polls\r\n    uint256 public nPolls;\r\n\r\n    // On successful poll creation\r\n    event PollCreated(address pollAddress, address ownerAddress);\r\n\r\n    constructor() {\r\n        owner = msg.sender;\r\n    }\r\n\r\n    // A function to deploy new poll contract\r\n    function createPoll(\r\n        string memory _title,\r\n        string memory _description,\r\n        string[] memory _options\r\n    ) public {\r\n        bytes32 emptyHash = keccak256(bytes(\"\"));\r\n\r\n        // To check _title is not empty string\r\n        require(keccak256(bytes(_title)) != emptyHash, \"Title can't be empty\");\r\n        // To check _description is not empty string\r\n        require(\r\n            keccak256(bytes(_description)) != emptyHash,\r\n            \"Description can't be empty\"\r\n        );\r\n        // To check _options is not empty string\r\n        for (uint256 i = 0; i < _options.length; i++) {\r\n            require(\r\n                keccak256(bytes(_options[i])) != emptyHash,\r\n                \"Options can't be empty\"\r\n            );\r\n        }\r\n\r\n        // Create and deploy contract\r\n        Poll _poll = new Poll(msg.sender, _title, _description, _options);\r\n\r\n        // Store poll contract address for fetching afterwards\r\n        polls[nPolls] = address(_poll);\r\n        nPolls++;\r\n\r\n        // Let the frontend know after success\r\n        emit PollCreated(address(_poll), msg.sender);\r\n    }\r\n\r\n    // Get poll overview by index\r\n    function getPollOverview(uint256 _index, address _user)\r\n        public\r\n        view\r\n        returns (\r\n            address pollAddress,\r\n            string memory title,\r\n            string memory description,\r\n            address _owner,\r\n            bool isResultAnnounced,\r\n            uint256 totalVotes,\r\n            bool hasUserVoted\r\n        )\r\n    {\r\n        Poll _poll = Poll(polls[_index]);\r\n\r\n        bool _hasUserVoted = _poll.voters(_user);\r\n\r\n        // Returns contract address and other details of poll\r\n        return (\r\n            polls[_index],\r\n            _poll.title(),\r\n            _poll.description(),\r\n            _poll.owner(),\r\n            _poll.isResultAnnounced(),\r\n            _poll.totalVotes(),\r\n            _hasUserVoted\r\n        );\r\n    }\r\n}\r\n",
  "sourcePath": "F:\\ethdev\\voting-dapp\\contracts\\Application.sol",
  "compiler": {
    "name": "solc",
    "version": "0.8.9+commit.e5eed63a.Emscripten.clang"
  },
  "schemaVersion": "3.4.3",
  "updatedAt": "2021-10-11T18:26:21.609Z",
  "networkType": "ethereum",
  "devdoc": {
    "kind": "dev",
    "methods": {},
    "version": 1
  },
  "userdoc": {
    "kind": "user",
    "methods": {},
    "version": 1
  }
}