{
  "contractName": "Application",
  "abi": [
    {
      "inputs": [],
      "stateMutability": "nonpayable",
      "type": "constructor"
    },
    {
      "anonymous": false,
      "inputs": [
        {
          "indexed": false,
          "internalType": "address",
          "name": "pollAddress",
          "type": "address"
        },
        {
          "indexed": false,
          "internalType": "address",
          "name": "ownerAddress",
          "type": "address"
        }
      ],
      "name": "PollCreated",
      "type": "event"
    },
    {
      "inputs": [],
      "name": "nPolls",
      "outputs": [
        {
          "internalType": "uint256",
          "name": "",
          "type": "uint256"
        }
      ],
      "stateMutability": "view",
      "type": "function",
      "constant": true
    },
    {
      "inputs": [],
      "name": "owner",
      "outputs": [
        {
          "internalType": "address",
          "name": "",
          "type": "address"
        }
      ],
      "stateMutability": "view",
      "type": "function",
      "constant": true
    },
    {
      "inputs": [
        {
          "internalType": "uint256",
          "name": "",
          "type": "uint256"
        }
      ],
      "name": "polls",
      "outputs": [
        {
          "internalType": "address",
          "name": "",
          "type": "address"
        }
      ],
      "stateMutability": "view",
      "type": "function",
      "constant": true
    },
    {
      "inputs": [
        {
          "internalType": "string",
          "name": "_title",
          "type": "string"
        },
        {
          "internalType": "string",
          "name": "_description",
          "type": "string"
        },
        {
          "internalType": "string[]",
          "name": "_options",
          "type": "string[]"
        }
      ],
      "name": "createPoll",
      "outputs": [],
      "stateMutability": "nonpayable",
      "type": "function"
    },
    {
      "inputs": [
        {
          "internalType": "uint256",
          "name": "_index",
          "type": "uint256"
        },
        {
          "internalType": "address",
          "name": "_user",
          "type": "address"
        }
      ],
      "name": "getPollOverview",
      "outputs": [
        {
          "internalType": "address",
          "name": "pollAddress",
          "type": "address"
        },
        {
          "internalType": "string",
          "name": "title",
          "type": "string"
        },
        {
          "internalType": "string",
          "name": "description",
          "type": "string"
        },
        {
          "internalType": "address",
          "name": "_owner",
          "type": "address"
        },
        {
          "internalType": "uint256",
          "name": "nOptions",
          "type": "uint256"
        },
        {
          "internalType": "bool",
          "name": "isResultAnnounced",
          "type": "bool"
        },
        {
          "internalType": "uint256",
          "name": "totalVotes",
          "type": "uint256"
        },
        {
          "internalType": "bool",
          "name": "hasUserVoted",
          "type": "bool"
        }
      ],
      "stateMutability": "view",
      "type": "function",
      "constant": true
    }
  ],
  "bytecode": "0x608060405234801561001057600080fd5b50600080546001600160a01b03191633179055611a91806100326000396000f3fe60806040523480156200001157600080fd5b50600436106200005e5760003560e01c80637c5c2cef14620000635780638da5cb5b1462000080578063ac2f007414620000ad578063cfba7a0914620000d9578063f80a3a2814620000f2575b600080fd5b6200006d60025481565b6040519081526020015b60405180910390f35b60005462000094906001600160a01b031681565b6040516001600160a01b03909116815260200162000077565b62000094620000be36600462000690565b6001602052600090815260409020546001600160a01b031681565b620000f0620000ea3660046200077b565b6200011f565b005b6200010962000103366004620008b2565b62000355565b6040516200007798979695949392919062000946565b604080516020808201909252600090528351908401207fc5d2460186f7233c927e7db2dcc703c0e500b653ca82273b7bfad8045d85a47090811415620001a35760405162461bcd60e51b81526020600482015260146024820152735469746c652063616e277420626520656d70747960601b60448201526064015b60405180910390fd5b82516020840120811415620001fb5760405162461bcd60e51b815260206004820152601a60248201527f4465736372697074696f6e2063616e277420626520656d70747900000000000060448201526064016200019a565b60005b82518110156200028b57818382815181106200021e576200021e620009b1565b6020026020010151805190602001201415620002765760405162461bcd60e51b81526020600482015260166024820152754f7074696f6e732063616e277420626520656d70747960501b60448201526064016200019a565b806200028281620009c7565b915050620001fe565b50600033858585604051620002a09062000682565b620002af9493929190620009f1565b604051809103906000f080158015620002cc573d6000803e3d6000fd5b5060028054600090815260016020526040812080546001600160a01b0319166001600160a01b03851617905581549293506200030883620009c7565b9091555050604080516001600160a01b03831681523360208201527f5b850d927499bc55df3941f7c4ae97ab6fce34a21f4df0ab30694f24353445b2910160405180910390a15050505050565b60008281526001602052604080822054905163a3ec138d60e01b81526001600160a01b03848116600483015260609283928592839283928392839216908290829063a3ec138d90602401602060405180830381865afa158015620003bd573d6000803e3d6000fd5b505050506040513d601f19601f82011682018060405250810190620003e3919062000a92565b60008d81526001602052604080822054815163129e754360e21b815291519394506001600160a01b039081169390861692634a79d50c92600480820193918290030181865afa1580156200043b573d6000803e3d6000fd5b505050506040513d6000823e601f3d908101601f1916820160405262000465919081019062000abd565b836001600160a01b0316637284e4166040518163ffffffff1660e01b8152600401600060405180830381865afa158015620004a4573d6000803e3d6000fd5b505050506040513d6000823e601f3d908101601f19168201604052620004ce919081019062000abd565b846001600160a01b0316638da5cb5b6040518163ffffffff1660e01b8152600401602060405180830381865afa1580156200050d573d6000803e3d6000fd5b505050506040513d601f19601f8201168201806040525081019062000533919062000b3d565b856001600160a01b0316630cf0ad656040518163ffffffff1660e01b8152600401602060405180830381865afa15801562000572573d6000803e3d6000fd5b505050506040513d601f19601f8201168201806040525081019062000598919062000b5d565b866001600160a01b031663e06447126040518163ffffffff1660e01b8152600401602060405180830381865afa158015620005d7573d6000803e3d6000fd5b505050506040513d601f19601f82011682018060405250810190620005fd919062000a92565b876001600160a01b0316630d15fd776040518163ffffffff1660e01b8152600401602060405180830381865afa1580156200063c573d6000803e3d6000fd5b505050506040513d601f19601f8201168201806040525081019062000662919062000b5d565b879950995099509950995099509950995050509295985092959890939650565b610ee48062000b7883390190565b600060208284031215620006a357600080fd5b5035919050565b634e487b7160e01b600052604160045260246000fd5b604051601f8201601f1916810167ffffffffffffffff81118282101715620006ec57620006ec620006aa565b604052919050565b600067ffffffffffffffff821115620007115762000711620006aa565b50601f01601f191660200190565b600082601f8301126200073157600080fd5b8135620007486200074282620006f4565b620006c0565b8181528460208386010111156200075e57600080fd5b816020850160208301376000918101602001919091529392505050565b6000806000606084860312156200079157600080fd5b833567ffffffffffffffff80821115620007aa57600080fd5b620007b8878388016200071f565b9450602091508186013581811115620007d057600080fd5b620007de888289016200071f565b945050604086013581811115620007f457600080fd5b8601601f810188136200080657600080fd5b8035828111156200081b576200081b620006aa565b8060051b6200082c858201620006c0565b918252828101850191858101908b8411156200084757600080fd5b86850192505b838310156200088857823586811115620008675760008081fd5b620008778d89838901016200071f565b83525091860191908601906200084d565b809750505050505050509250925092565b6001600160a01b0381168114620008af57600080fd5b50565b60008060408385031215620008c657600080fd5b823591506020830135620008da8162000899565b809150509250929050565b60005b8381101562000902578181015183820152602001620008e8565b8381111562000912576000848401525b50505050565b6000815180845262000932816020860160208601620008e5565b601f01601f19169290920160200192915050565b6001600160a01b038981168252610100602083018190526000916200096e8483018c62000918565b9150838203604085015262000984828b62000918565b981660608401525050608081019490945291151560a084015260c0830152151560e0909101529392505050565b634e487b7160e01b600052603260045260246000fd5b6000600019821415620009ea57634e487b7160e01b600052601160045260246000fd5b5060010190565b6001600160a01b03851681526080602080830182905260009162000a189084018762000918565b838103604085015262000a2c818762000918565b905083810360608501528085518083528383019150838160051b84010184880160005b8381101562000a8157601f1986840301855262000a6e83835162000918565b9487019492509086019060010162000a4f565b50909b9a5050505050505050505050565b60006020828403121562000aa557600080fd5b8151801515811462000ab657600080fd5b9392505050565b60006020828403121562000ad057600080fd5b815167ffffffffffffffff81111562000ae857600080fd5b8201601f8101841362000afa57600080fd5b805162000b0b6200074282620006f4565b81815285602083850101111562000b2157600080fd5b62000b34826020830160208601620008e5565b95945050505050565b60006020828403121562000b5057600080fd5b815162000ab68162000899565b60006020828403121562000b7057600080fd5b505191905056fe60806040526000600555600060085560006009556000600a553480156200002557600080fd5b5060405162000ee438038062000ee48339810160408190526200004891620002ad565b600080546001600160a01b0319166001600160a01b03861617905582516200007890600190602086019062000129565b5081516200008e90600290602085019062000129565b50805160055560005b6005548110156200011e576040518060400160405280838381518110620000c257620000c2620003ee565b60209081029190910181015182526000918101829052838252600681526040909120825180519192620000fb9284929091019062000129565b506020919091015160019091015580620001158162000404565b91505062000097565b50505050506200046b565b82805462000137906200042e565b90600052602060002090601f0160209004810192826200015b5760008555620001a6565b82601f106200017657805160ff1916838001178555620001a6565b82800160010185558215620001a6579182015b82811115620001a657825182559160200191906001019062000189565b50620001b4929150620001b8565b5090565b5b80821115620001b45760008155600101620001b9565b634e487b7160e01b600052604160045260246000fd5b604051601f8201601f191681016001600160401b0381118282101715620002105762000210620001cf565b604052919050565b600082601f8301126200022a57600080fd5b81516001600160401b03811115620002465762000246620001cf565b60206200025c601f8301601f19168201620001e5565b82815285828487010111156200027157600080fd5b60005b838110156200029157858101830151828201840152820162000274565b83811115620002a35760008385840101525b5095945050505050565b60008060008060808587031215620002c457600080fd5b84516001600160a01b0381168114620002dc57600080fd5b602086810151919550906001600160401b0380821115620002fc57600080fd5b6200030a89838a0162000218565b955060408801519150808211156200032157600080fd5b6200032f89838a0162000218565b945060608801519150808211156200034657600080fd5b818801915088601f8301126200035b57600080fd5b815181811115620003705762000370620001cf565b8060051b62000381858201620001e5565b918252838101850191858101908c8411156200039c57600080fd5b86860192505b83831015620003dd57825185811115620003bc5760008081fd5b620003cc8e89838a010162000218565b8352509186019190860190620003a2565b999c989b5096995050505050505050565b634e487b7160e01b600052603260045260246000fd5b60006000198214156200042757634e487b7160e01b600052601160045260246000fd5b5060010190565b600181811c908216806200044357607f821691505b602082108114156200046557634e487b7160e01b600052602260045260246000fd5b50919050565b610a69806200047b6000396000f3fe608060405234801561001057600080fd5b50600436106100b45760003560e01c80637284e416116100715780637284e4161461013c5780638da5cb5b146101445780638e7ea5b21461016f578063a3ec138d14610184578063e0644712146101b7578063f4e11bbe146101c457600080fd5b80630121b93f146100b95780630cf0ad65146100ce5780630d15fd77146100ea5780631b0c27da146100f35780631ce5e9a6146101145780634a79d50c14610134575b600080fd5b6100cc6100c7366004610817565b6101cc565b005b6100d760055481565b6040519081526020015b60405180910390f35b6100d7600a5481565b610106610101366004610817565b610313565b6040516100e192919061087d565b610127610122366004610817565b6103b7565b6040516100e1919061089f565b610127610459565b6101276104e7565b600054610157906001600160a01b031681565b6040516001600160a01b0390911681526020016100e1565b6101776104f4565b6040516100e191906108b9565b6101a76101923660046108eb565b60046020526000908152604090205460ff1681565b60405190151581526020016100e1565b6003546101a79060ff1681565b6100cc610616565b60035460ff16156102325760405162461bcd60e51b815260206004820152602560248201527f43616e6e6f7420766f746520616674657220726573756c7420616e6e6f756e63604482015264195b595b9d60da1b60648201526084015b60405180910390fd5b3360009081526004602052604090205460ff161561028b5760405162461bcd60e51b8152602060048201526016602482015275165bdd481a185d9948185b1c9958591e481d9bdd195960521b6044820152606401610229565b60008181526006602052604081206001018054916102a883610914565b909155505060095460008281526006602052604090206001015411156102e35760008181526006602052604090206001015460095560088190555b336000908152600460205260408120805460ff19166001179055600a80549161030b83610914565b919050555050565b60076020526000908152604090208054819061032e9061093d565b80601f016020809104026020016040519081016040528092919081815260200182805461035a9061093d565b80156103a75780601f1061037c576101008083540402835291602001916103a7565b820191906000526020600020905b81548152906001019060200180831161038a57829003601f168201915b5050505050908060010154905082565b60008181526006602052604090208054606091906103d49061093d565b80601f01602080910402602001604051908101604052809291908181526020018280546104009061093d565b801561044d5780601f106104225761010080835404028352916020019161044d565b820191906000526020600020905b81548152906001019060200180831161043057829003601f168201915b50505050509050919050565b600180546104669061093d565b80601f01602080910402602001604051908101604052809291908181526020018280546104929061093d565b80156104df5780601f106104b4576101008083540402835291602001916104df565b820191906000526020600020905b8154815290600101906020018083116104c257829003601f168201915b505050505081565b600280546104669061093d565b60408051808201909152606081526000602082015260035460ff1661055b5760405162461bcd60e51b815260206004820152601860248201527f526573756c74206e6f7420616e6e6f756e6365642079657400000000000000006044820152606401610229565b6008546000908152600660205260409081902081518083019092528054829082906105859061093d565b80601f01602080910402602001604051908101604052809291908181526020018280546105b19061093d565b80156105fe5780601f106105d3576101008083540402835291602001916105fe565b820191906000526020600020905b8154815290600101906020018083116105e157829003601f168201915b50505050508152602001600182015481525050905090565b60035460ff16156106695760405162461bcd60e51b815260206004820152601860248201527f526573756c7420616c726561647920616e6e6f756e63656400000000000000006044820152606401610229565b6000546001600160a01b031633146106c35760405162461bcd60e51b815260206004820152601e60248201527f4f6e6c79206f776e65722063616e20616e6e6f756e636520726573756c7400006044820152606401610229565b6003805460ff1916600117905560005b60055481101561072c57600081815260066020908152604080832060079092529091208154819083906107059061093d565b610710929190610777565b506001918201549101558061072481610914565b9150506106d3565b506008546000908152600660205260409081902090517f9c5a4a2d4d776f9c42bfc12c4f5dd485f24e4eb57c088fcd2d22a288ec72c66a9161076d91610978565b60405180910390a1565b8280546107839061093d565b90600052602060002090601f0160209004810192826107a557600085556107f2565b82601f106107b657805485556107f2565b828001600101855582156107f257600052602060002091601f016020900482015b828111156107f25782548255916001019190600101906107d7565b506107fe929150610802565b5090565b5b808211156107fe5760008155600101610803565b60006020828403121561082957600080fd5b5035919050565b6000815180845260005b818110156108565760208185018101518683018201520161083a565b81811115610868576000602083870101525b50601f01601f19169290920160200192915050565b6040815260006108906040830185610830565b90508260208301529392505050565b6020815260006108b26020830184610830565b9392505050565b6020815260008251604060208401526108d56060840182610830565b9050602084015160408401528091505092915050565b6000602082840312156108fd57600080fd5b81356001600160a01b03811681146108b257600080fd5b600060001982141561093657634e487b7160e01b600052601160045260246000fd5b5060010190565b600181811c9082168061095157607f821691505b6020821081141561097257634e487b7160e01b600052602260045260246000fd5b50919050565b600060208083526040818401526000845481600182811c9150808316806109a057607f831692505b8583108114156109be57634e487b7160e01b85526022600452602485fd5b60608801839052608088018180156109dd57600181146109ee57610a19565b60ff19861682528782019650610a19565b60008b81526020902060005b86811015610a13578154848201529085019089016109fa565b83019750505b50505080880154604088015250505080925050509291505056fea2646970667358221220b186ac04a49e7a6f33ae09c6e0c9d4b4f3e22b7270e54dd52284b23e1c867e3e64736f6c634300080a0033a264697066735822122047c6525d5705fb288ffc85e16fbe0a5bcc743da6bbcc798e109f19eb92eda26964736f6c634300080a0033",
  "immutableReferences": {},
  "source": "// SPDX-License-Identifier: MIT\npragma solidity ^0.8.6;\n\nimport \"./Poll.sol\";\n\ncontract Application {\n    // Owner\n    address public owner;\n\n    // To store all polls\n    mapping(uint256 => address) public polls;\n\n    // Total number of polls\n    uint256 public nPolls;\n\n    // On successful poll creation\n    event PollCreated(address pollAddress, address ownerAddress);\n\n    constructor() {\n        owner = msg.sender;\n    }\n\n    // A function to deploy new poll contract\n    function createPoll(\n        string memory _title,\n        string memory _description,\n        string[] memory _options\n    ) public {\n        bytes32 emptyHash = keccak256(bytes(\"\"));\n\n        // To check _title is not empty string\n        require(keccak256(bytes(_title)) != emptyHash, \"Title can't be empty\");\n        // To check _description is not empty string\n        require(\n            keccak256(bytes(_description)) != emptyHash,\n            \"Description can't be empty\"\n        );\n        // To check _options is not empty string\n        for (uint256 i = 0; i < _options.length; i++) {\n            require(\n                keccak256(bytes(_options[i])) != emptyHash,\n                \"Options can't be empty\"\n            );\n        }\n\n        // Create and deploy contract\n        Poll _poll = new Poll(msg.sender, _title, _description, _options);\n\n        // Store poll contract address for fetching afterwards\n        polls[nPolls] = address(_poll);\n        nPolls++;\n\n        // Let the frontend know after success\n        emit PollCreated(address(_poll), msg.sender);\n    }\n\n    // Get poll overview by index\n    function getPollOverview(uint256 _index, address _user)\n        public\n        view\n        returns (\n            address pollAddress,\n            string memory title,\n            string memory description,\n            address _owner,\n            uint256 nOptions,\n            bool isResultAnnounced,\n            uint256 totalVotes,\n            bool hasUserVoted\n        )\n    {\n        Poll _poll = Poll(polls[_index]);\n\n        bool _hasUserVoted = _poll.voters(_user);\n\n        // Returns contract address and other details of poll\n        return (\n            polls[_index],\n            _poll.title(),\n            _poll.description(),\n            _poll.owner(),\n            _poll.nOptions(),\n            _poll.isResultAnnounced(),\n            _poll.totalVotes(),\n            _hasUserVoted\n        );\n    }\n}\n",
  "sourcePath": "/Users/hrushi/Projects/Crypto/voting/contracts/Application.sol",
  "compiler": {
    "name": "solc",
    "version": "0.8.10+commit.fc410830.Emscripten.clang"
  },
  "schemaVersion": "3.4.3",
  "updatedAt": "2021-11-10T04:34:27.388Z",
  "networkType": "ethereum",
  "devdoc": {
    "kind": "dev",
    "methods": {},
    "version": 1
  },
  "userdoc": {
    "kind": "user",
    "methods": {},
    "version": 1
  }
}