{
  "contractName": "Election",
  "abi": [
    {
      "inputs": [
        {
          "internalType": "string",
          "name": "_title",
          "type": "string"
        },
        {
          "internalType": "string",
          "name": "_description",
          "type": "string"
        },
        {
          "internalType": "string[]",
          "name": "_options",
          "type": "string[]"
        }
      ],
      "stateMutability": "nonpayable",
      "type": "constructor"
    },
    {
      "anonymous": false,
      "inputs": [
        {
          "components": [
            {
              "internalType": "string",
              "name": "name",
              "type": "string"
            },
            {
              "internalType": "uint256",
              "name": "count",
              "type": "uint256"
            }
          ],
          "indexed": false,
          "internalType": "struct Election.Option",
          "name": "winnerOption",
          "type": "tuple"
        },
        {
          "indexed": false,
          "internalType": "uint256",
          "name": "maxVotes",
          "type": "uint256"
        }
      ],
      "name": "ResultAnnounced",
      "type": "event"
    },
    {
      "inputs": [],
      "name": "description",
      "outputs": [
        {
          "internalType": "string",
          "name": "",
          "type": "string"
        }
      ],
      "stateMutability": "view",
      "type": "function",
      "constant": true
    },
    {
      "inputs": [],
      "name": "isResultAnnounced",
      "outputs": [
        {
          "internalType": "bool",
          "name": "",
          "type": "bool"
        }
      ],
      "stateMutability": "view",
      "type": "function",
      "constant": true
    },
    {
      "inputs": [],
      "name": "maxVotes",
      "outputs": [
        {
          "internalType": "uint256",
          "name": "",
          "type": "uint256"
        }
      ],
      "stateMutability": "view",
      "type": "function",
      "constant": true
    },
    {
      "inputs": [],
      "name": "maxVotesIndex",
      "outputs": [
        {
          "internalType": "uint256",
          "name": "",
          "type": "uint256"
        }
      ],
      "stateMutability": "view",
      "type": "function",
      "constant": true
    },
    {
      "inputs": [],
      "name": "nOptions",
      "outputs": [
        {
          "internalType": "uint256",
          "name": "",
          "type": "uint256"
        }
      ],
      "stateMutability": "view",
      "type": "function",
      "constant": true
    },
    {
      "inputs": [
        {
          "internalType": "uint256",
          "name": "",
          "type": "uint256"
        }
      ],
      "name": "optionCounts",
      "outputs": [
        {
          "internalType": "string",
          "name": "name",
          "type": "string"
        },
        {
          "internalType": "uint256",
          "name": "count",
          "type": "uint256"
        }
      ],
      "stateMutability": "view",
      "type": "function",
      "constant": true
    },
    {
      "inputs": [],
      "name": "owner",
      "outputs": [
        {
          "internalType": "address",
          "name": "",
          "type": "address"
        }
      ],
      "stateMutability": "view",
      "type": "function",
      "constant": true
    },
    {
      "inputs": [],
      "name": "title",
      "outputs": [
        {
          "internalType": "string",
          "name": "",
          "type": "string"
        }
      ],
      "stateMutability": "view",
      "type": "function",
      "constant": true
    },
    {
      "inputs": [
        {
          "internalType": "address",
          "name": "",
          "type": "address"
        }
      ],
      "name": "voters",
      "outputs": [
        {
          "internalType": "bool",
          "name": "",
          "type": "bool"
        }
      ],
      "stateMutability": "view",
      "type": "function",
      "constant": true
    },
    {
      "inputs": [
        {
          "internalType": "uint256",
          "name": "index",
          "type": "uint256"
        }
      ],
      "name": "vote",
      "outputs": [],
      "stateMutability": "nonpayable",
      "type": "function"
    },
    {
      "inputs": [],
      "name": "announceResult",
      "outputs": [],
      "stateMutability": "nonpayable",
      "type": "function"
    }
  ],
  "bytecode": "0x60806040526000600655600060075560006008553480156200002057600080fd5b5060405162000b8638038062000b8683398101604081905262000043916200029e565b600080546001600160a01b0319163317905582516200006a9060019060208601906200011a565b508151620000809060029060208501906200011a565b50805160065560005b60065481101562000110576040518060400160405280838381518110620000b457620000b4620003bb565b60209081029190910181015182526000918101829052838252600581526040909120825180519192620000ed928492909101906200011a565b5060209190910151600190910155806200010781620003d1565b91505062000089565b5050505062000438565b8280546200012890620003fb565b90600052602060002090601f0160209004810192826200014c576000855562000197565b82601f106200016757805160ff191683800117855562000197565b8280016001018555821562000197579182015b82811115620001975782518255916020019190600101906200017a565b50620001a5929150620001a9565b5090565b5b80821115620001a55760008155600101620001aa565b634e487b7160e01b600052604160045260246000fd5b604051601f8201601f191681016001600160401b0381118282101715620002015762000201620001c0565b604052919050565b600082601f8301126200021b57600080fd5b81516001600160401b03811115620002375762000237620001c0565b60206200024d601f8301601f19168201620001d6565b82815285828487010111156200026257600080fd5b60005b838110156200028257858101830151828201840152820162000265565b83811115620002945760008385840101525b5095945050505050565b600080600060608486031215620002b457600080fd5b83516001600160401b0380821115620002cc57600080fd5b620002da8783880162000209565b9450602091508186015181811115620002f257600080fd5b620003008882890162000209565b9450506040860151818111156200031657600080fd5b8601601f810188136200032857600080fd5b8051828111156200033d576200033d620001c0565b8060051b6200034e858201620001d6565b918252828101850191858101908b8411156200036957600080fd5b86850192505b83831015620003aa57825186811115620003895760008081fd5b620003998d898389010162000209565b83525091860191908601906200036f565b809750505050505050509250925092565b634e487b7160e01b600052603260045260246000fd5b6000600019821415620003f457634e487b7160e01b600052601160045260246000fd5b5060010190565b600181811c908216806200041057607f821691505b602082108114156200043257634e487b7160e01b600052602260045260246000fd5b50919050565b61073e80620004486000396000f3fe608060405234801561001057600080fd5b50600436106100a95760003560e01c80638da5cb5b116100715780638da5cb5b14610105578063a3ec138d14610130578063b0d2616814610163578063b6cef8d214610184578063e06447121461018d578063f4e11bbe1461019a57600080fd5b80630121b93f146100ae5780630cf0ad65146100c35780634a79d50c146100df5780637284e416146100f4578063777c3acf146100fc575b600080fd5b6100c16100bc36600461051d565b6101a2565b005b6100cc60065481565b6040519081526020015b60405180910390f35b6100e76102d6565b6040516100d69190610583565b6100e7610364565b6100cc60085481565b600054610118906001600160a01b031681565b6040516001600160a01b0390911681526020016100d6565b61015361013e36600461059d565b60046020526000908152604090205460ff1681565b60405190151581526020016100d6565b61017661017136600461051d565b610371565b6040516100d69291906105c6565b6100cc60075481565b6003546101539060ff1681565b6100c1610415565b60035460ff16156102085760405162461bcd60e51b815260206004820152602560248201527f43616e6e6f7420766f746520616674657220726573756c7420616e6e6f756e63604482015264195b595b9d60da1b60648201526084015b60405180910390fd5b3360009081526004602052604090205460ff16156102615760405162461bcd60e51b8152602060048201526016602482015275165bdd481a185d9948185b1c9958591e481d9bdd195960521b60448201526064016101ff565b600081815260056020526040812060010180549161027e836105e8565b909155505060085460008281526005602052604090206001015411156102b95760008181526005602052604090206001015460085560078190555b50336000908152600460205260409020805460ff19166001179055565b600180546102e390610611565b80601f016020809104026020016040519081016040528092919081815260200182805461030f90610611565b801561035c5780601f106103315761010080835404028352916020019161035c565b820191906000526020600020905b81548152906001019060200180831161033f57829003601f168201915b505050505081565b600280546102e390610611565b60056020526000908152604090208054819061038c90610611565b80601f01602080910402602001604051908101604052809291908181526020018280546103b890610611565b80156104055780601f106103da57610100808354040283529160200191610405565b820191906000526020600020905b8154815290600101906020018083116103e857829003601f168201915b5050505050908060010154905082565b60035460ff16156104685760405162461bcd60e51b815260206004820152601860248201527f526573756c7420616c726561647920616e6e6f756e636564000000000000000060448201526064016101ff565b6000546001600160a01b031633146104c25760405162461bcd60e51b815260206004820152601e60248201527f4f6e6c79206f776e65722063616e20616e6e6f756e636520726573756c74000060448201526064016101ff565b6003805460ff191660011790556007546000908152600560205260409081902060085491517f7fc6431e745134caccb8fdee54ab56186cdc3d79b57b3a4580eb8745a9d5e77d92610513929161064c565b60405180910390a1565b60006020828403121561052f57600080fd5b5035919050565b6000815180845260005b8181101561055c57602081850181015186830182015201610540565b8181111561056e576000602083870101525b50601f01601f19169290920160200192915050565b6020815260006105966020830184610536565b9392505050565b6000602082840312156105af57600080fd5b81356001600160a01b038116811461059657600080fd5b6040815260006105d96040830185610536565b90508260208301529392505050565b600060001982141561060a57634e487b7160e01b600052601160045260246000fd5b5060010190565b600181811c9082168061062557607f821691505b6020821081141561064657634e487b7160e01b600052602260045260246000fd5b50919050565b60408152604080820152600080845481600182811c91508083168061067257607f831692505b602080841082141561069257634e487b7160e01b86526022600452602486fd5b6080880184905260a088018280156106b157600181146106c2576106ed565b60ff198716825282820197506106ed565b60008c81526020902060005b878110156106e7578154848201529086019084016106ce565b83019850505b5050989091015460608701525050509390910191909152509056fea26469706673582212201e00ea7285a4f815ae3f42910d8c259eb2388677ca0ecfe62d027c5c1ecdfb7a64736f6c63430008090033",
  "immutableReferences": {},
  "source": "// SPDX-License-Identifier: MIT\r\npragma solidity ^0.8.6;\r\n\r\ncontract Election {\r\n    // Address that creates voting program\r\n    address public owner;\r\n\r\n    // Program Title\r\n    string public title;\r\n\r\n    // Program Description\r\n    string public description;\r\n\r\n    // To check if results have been announced\r\n    bool public isResultAnnounced;\r\n\r\n    // To store all the addresses who have already voted\r\n    mapping(address => bool) public voters;\r\n\r\n    // Option struct\r\n    struct Option {\r\n        string name;\r\n        uint256 count;\r\n    }\r\n\r\n    // Mapping for counting votes to each option\r\n    mapping(uint256 => Option) public optionCounts;\r\n\r\n    // Number of options\r\n    uint256 public nOptions = 0;\r\n\r\n    // Index of option with max votes\r\n    uint256 public maxVotesIndex = 0;\r\n\r\n    // Current max votes to any option\r\n    uint256 public maxVotes = 0;\r\n\r\n    // Emitted when results are announced successfully\r\n    event ResultAnnounced(Option winnerOption, uint256 maxVotes);\r\n\r\n    constructor(\r\n        string memory _title,\r\n        string memory _description,\r\n        string[] memory _options\r\n    ) {\r\n        // To check _title, _description and _options are not empty strings\r\n        // require(_title != \"\", \"No title provided\");\r\n        // require(_description != \"\", \"No description provided\");\r\n\r\n        owner = msg.sender;\r\n        title = _title;\r\n        description = _description;\r\n        nOptions = _options.length;\r\n        // Create mapping of index => Option(name, count)\r\n        for (uint256 i = 0; i < nOptions; i++) {\r\n            optionCounts[i] = Option(_options[i], 0);\r\n        }\r\n    }\r\n\r\n    // Function to cast vote\r\n    function vote(uint256 index) public {\r\n        // Check if result already announced\r\n        require(!isResultAnnounced, \"Cannot vote after result announcement\");\r\n        // Check if voter has already voted\r\n        require(!voters[msg.sender], \"You have already voted\");\r\n        // Vote for option corresponding to index\r\n        optionCounts[index].count++;\r\n        // Adjust option with maximum votes\r\n        if (optionCounts[index].count > maxVotes) {\r\n            maxVotes = optionCounts[index].count;\r\n            maxVotesIndex = index;\r\n        }\r\n        // Mark as voted\r\n        voters[msg.sender] = true;\r\n    }\r\n\r\n    // Function to announce results which can be called by only owner\r\n    function announceResult() public {\r\n        // Check if results already announced\r\n        require(!isResultAnnounced, \"Result already announced\");\r\n        // Check if caller is owner\r\n        require(msg.sender == owner, \"Only owner can announce result\");\r\n\r\n        // Mark result as announced\r\n        isResultAnnounced = true;\r\n\r\n        // Emit event along with result data\r\n        emit ResultAnnounced(optionCounts[maxVotesIndex], maxVotes);\r\n    }\r\n}\r\n",
  "sourcePath": "F:\\ethdev\\voting-dapp\\contracts\\Election.sol",
  "compiler": {
    "name": "solc",
    "version": "0.8.9+commit.e5eed63a.Emscripten.clang"
  },
  "schemaVersion": "3.4.3",
  "updatedAt": "2021-10-08T18:19:50.422Z",
  "networkType": "ethereum",
  "devdoc": {
    "kind": "dev",
    "methods": {},
    "version": 1
  },
  "userdoc": {
    "kind": "user",
    "methods": {},
    "version": 1
  }
}