{
  "contractName": "Poll",
  "abi": [
    {
      "inputs": [
        {
          "internalType": "address",
          "name": "_owner",
          "type": "address"
        },
        {
          "internalType": "string",
          "name": "_title",
          "type": "string"
        },
        {
          "internalType": "string",
          "name": "_description",
          "type": "string"
        },
        {
          "internalType": "string[]",
          "name": "_options",
          "type": "string[]"
        }
      ],
      "stateMutability": "nonpayable",
      "type": "constructor"
    },
    {
      "anonymous": false,
      "inputs": [
        {
          "components": [
            {
              "internalType": "string",
              "name": "name",
              "type": "string"
            },
            {
              "internalType": "uint256",
              "name": "count",
              "type": "uint256"
            }
          ],
          "indexed": false,
          "internalType": "struct Poll.Option",
          "name": "winnerOption",
          "type": "tuple"
        }
      ],
      "name": "ResultAnnounced",
      "type": "event"
    },
    {
      "inputs": [],
      "name": "description",
      "outputs": [
        {
          "internalType": "string",
          "name": "",
          "type": "string"
        }
      ],
      "stateMutability": "view",
      "type": "function"
    },
    {
      "inputs": [],
      "name": "isResultAnnounced",
      "outputs": [
        {
          "internalType": "bool",
          "name": "",
          "type": "bool"
        }
      ],
      "stateMutability": "view",
      "type": "function"
    },
    {
      "inputs": [],
      "name": "nOptions",
      "outputs": [
        {
          "internalType": "uint256",
          "name": "",
          "type": "uint256"
        }
      ],
      "stateMutability": "view",
      "type": "function"
    },
    {
      "inputs": [],
      "name": "owner",
      "outputs": [
        {
          "internalType": "address",
          "name": "",
          "type": "address"
        }
      ],
      "stateMutability": "view",
      "type": "function"
    },
    {
      "inputs": [
        {
          "internalType": "uint256",
          "name": "",
          "type": "uint256"
        }
      ],
      "name": "results",
      "outputs": [
        {
          "internalType": "string",
          "name": "name",
          "type": "string"
        },
        {
          "internalType": "uint256",
          "name": "count",
          "type": "uint256"
        }
      ],
      "stateMutability": "view",
      "type": "function"
    },
    {
      "inputs": [],
      "name": "title",
      "outputs": [
        {
          "internalType": "string",
          "name": "",
          "type": "string"
        }
      ],
      "stateMutability": "view",
      "type": "function"
    },
    {
      "inputs": [],
      "name": "totalVotes",
      "outputs": [
        {
          "internalType": "uint256",
          "name": "",
          "type": "uint256"
        }
      ],
      "stateMutability": "view",
      "type": "function"
    },
    {
      "inputs": [
        {
          "internalType": "address",
          "name": "",
          "type": "address"
        }
      ],
      "name": "voters",
      "outputs": [
        {
          "internalType": "bool",
          "name": "",
          "type": "bool"
        }
      ],
      "stateMutability": "view",
      "type": "function"
    },
    {
      "inputs": [
        {
          "internalType": "uint256",
          "name": "index",
          "type": "uint256"
        }
      ],
      "name": "vote",
      "outputs": [],
      "stateMutability": "nonpayable",
      "type": "function"
    },
    {
      "inputs": [],
      "name": "announceResult",
      "outputs": [],
      "stateMutability": "nonpayable",
      "type": "function"
    },
    {
      "inputs": [
        {
          "internalType": "uint256",
          "name": "_index",
          "type": "uint256"
        }
      ],
      "name": "getOption",
      "outputs": [
        {
          "internalType": "string",
          "name": "",
          "type": "string"
        }
      ],
      "stateMutability": "view",
      "type": "function"
    },
    {
      "inputs": [],
      "name": "getWinner",
      "outputs": [
        {
          "components": [
            {
              "internalType": "string",
              "name": "name",
              "type": "string"
            },
            {
              "internalType": "uint256",
              "name": "count",
              "type": "uint256"
            }
          ],
          "internalType": "struct Poll.Option",
          "name": "",
          "type": "tuple"
        }
      ],
      "stateMutability": "view",
      "type": "function"
    }
  ],
  "bytecode": "0x60806040526000600555600060085560006009556000600a553480156200002557600080fd5b5060405162000ee438038062000ee48339810160408190526200004891620002ad565b600080546001600160a01b0319166001600160a01b03861617905582516200007890600190602086019062000129565b5081516200008e90600290602085019062000129565b50805160055560005b6005548110156200011e576040518060400160405280838381518110620000c257620000c2620003ee565b60209081029190910181015182526000918101829052838252600681526040909120825180519192620000fb9284929091019062000129565b506020919091015160019091015580620001158162000404565b91505062000097565b50505050506200046b565b82805462000137906200042e565b90600052602060002090601f0160209004810192826200015b5760008555620001a6565b82601f106200017657805160ff1916838001178555620001a6565b82800160010185558215620001a6579182015b82811115620001a657825182559160200191906001019062000189565b50620001b4929150620001b8565b5090565b5b80821115620001b45760008155600101620001b9565b634e487b7160e01b600052604160045260246000fd5b604051601f8201601f191681016001600160401b0381118282101715620002105762000210620001cf565b604052919050565b600082601f8301126200022a57600080fd5b81516001600160401b03811115620002465762000246620001cf565b60206200025c601f8301601f19168201620001e5565b82815285828487010111156200027157600080fd5b60005b838110156200029157858101830151828201840152820162000274565b83811115620002a35760008385840101525b5095945050505050565b60008060008060808587031215620002c457600080fd5b84516001600160a01b0381168114620002dc57600080fd5b602086810151919550906001600160401b0380821115620002fc57600080fd5b6200030a89838a0162000218565b955060408801519150808211156200032157600080fd5b6200032f89838a0162000218565b945060608801519150808211156200034657600080fd5b818801915088601f8301126200035b57600080fd5b815181811115620003705762000370620001cf565b8060051b62000381858201620001e5565b918252838101850191858101908c8411156200039c57600080fd5b86860192505b83831015620003dd57825185811115620003bc5760008081fd5b620003cc8e89838a010162000218565b8352509186019190860190620003a2565b999c989b5096995050505050505050565b634e487b7160e01b600052603260045260246000fd5b60006000198214156200042757634e487b7160e01b600052601160045260246000fd5b5060010190565b600181811c908216806200044357607f821691505b602082108114156200046557634e487b7160e01b600052602260045260246000fd5b50919050565b610a69806200047b6000396000f3fe608060405234801561001057600080fd5b50600436106100b45760003560e01c80637284e416116100715780637284e4161461013c5780638da5cb5b146101445780638e7ea5b21461016f578063a3ec138d14610184578063e0644712146101b7578063f4e11bbe146101c457600080fd5b80630121b93f146100b95780630cf0ad65146100ce5780630d15fd77146100ea5780631b0c27da146100f35780631ce5e9a6146101145780634a79d50c14610134575b600080fd5b6100cc6100c7366004610817565b6101cc565b005b6100d760055481565b6040519081526020015b60405180910390f35b6100d7600a5481565b610106610101366004610817565b610313565b6040516100e192919061087d565b610127610122366004610817565b6103b7565b6040516100e1919061089f565b610127610459565b6101276104e7565b600054610157906001600160a01b031681565b6040516001600160a01b0390911681526020016100e1565b6101776104f4565b6040516100e191906108b9565b6101a76101923660046108eb565b60046020526000908152604090205460ff1681565b60405190151581526020016100e1565b6003546101a79060ff1681565b6100cc610616565b60035460ff16156102325760405162461bcd60e51b815260206004820152602560248201527f43616e6e6f7420766f746520616674657220726573756c7420616e6e6f756e63604482015264195b595b9d60da1b60648201526084015b60405180910390fd5b3360009081526004602052604090205460ff161561028b5760405162461bcd60e51b8152602060048201526016602482015275165bdd481a185d9948185b1c9958591e481d9bdd195960521b6044820152606401610229565b60008181526006602052604081206001018054916102a883610914565b909155505060095460008281526006602052604090206001015411156102e35760008181526006602052604090206001015460095560088190555b336000908152600460205260408120805460ff19166001179055600a80549161030b83610914565b919050555050565b60076020526000908152604090208054819061032e9061093d565b80601f016020809104026020016040519081016040528092919081815260200182805461035a9061093d565b80156103a75780601f1061037c576101008083540402835291602001916103a7565b820191906000526020600020905b81548152906001019060200180831161038a57829003601f168201915b5050505050908060010154905082565b60008181526006602052604090208054606091906103d49061093d565b80601f01602080910402602001604051908101604052809291908181526020018280546104009061093d565b801561044d5780601f106104225761010080835404028352916020019161044d565b820191906000526020600020905b81548152906001019060200180831161043057829003601f168201915b50505050509050919050565b600180546104669061093d565b80601f01602080910402602001604051908101604052809291908181526020018280546104929061093d565b80156104df5780601f106104b4576101008083540402835291602001916104df565b820191906000526020600020905b8154815290600101906020018083116104c257829003601f168201915b505050505081565b600280546104669061093d565b60408051808201909152606081526000602082015260035460ff1661055b5760405162461bcd60e51b815260206004820152601860248201527f526573756c74206e6f7420616e6e6f756e6365642079657400000000000000006044820152606401610229565b6008546000908152600660205260409081902081518083019092528054829082906105859061093d565b80601f01602080910402602001604051908101604052809291908181526020018280546105b19061093d565b80156105fe5780601f106105d3576101008083540402835291602001916105fe565b820191906000526020600020905b8154815290600101906020018083116105e157829003601f168201915b50505050508152602001600182015481525050905090565b60035460ff16156106695760405162461bcd60e51b815260206004820152601860248201527f526573756c7420616c726561647920616e6e6f756e63656400000000000000006044820152606401610229565b6000546001600160a01b031633146106c35760405162461bcd60e51b815260206004820152601e60248201527f4f6e6c79206f776e65722063616e20616e6e6f756e636520726573756c7400006044820152606401610229565b6003805460ff1916600117905560005b60055481101561072c57600081815260066020908152604080832060079092529091208154819083906107059061093d565b610710929190610777565b506001918201549101558061072481610914565b9150506106d3565b506008546000908152600660205260409081902090517f9c5a4a2d4d776f9c42bfc12c4f5dd485f24e4eb57c088fcd2d22a288ec72c66a9161076d91610978565b60405180910390a1565b8280546107839061093d565b90600052602060002090601f0160209004810192826107a557600085556107f2565b82601f106107b657805485556107f2565b828001600101855582156107f257600052602060002091601f016020900482015b828111156107f25782548255916001019190600101906107d7565b506107fe929150610802565b5090565b5b808211156107fe5760008155600101610803565b60006020828403121561082957600080fd5b5035919050565b6000815180845260005b818110156108565760208185018101518683018201520161083a565b81811115610868576000602083870101525b50601f01601f19169290920160200192915050565b6040815260006108906040830185610830565b90508260208301529392505050565b6020815260006108b26020830184610830565b9392505050565b6020815260008251604060208401526108d56060840182610830565b9050602084015160408401528091505092915050565b6000602082840312156108fd57600080fd5b81356001600160a01b03811681146108b257600080fd5b600060001982141561093657634e487b7160e01b600052601160045260246000fd5b5060010190565b600181811c9082168061095157607f821691505b6020821081141561097257634e487b7160e01b600052602260045260246000fd5b50919050565b600060208083526040818401526000845481600182811c9150808316806109a057607f831692505b8583108114156109be57634e487b7160e01b85526022600452602485fd5b60608801839052608088018180156109dd57600181146109ee57610a19565b60ff19861682528782019650610a19565b60008b81526020902060005b86811015610a13578154848201529085019089016109fa565b83019750505b50505080880154604088015250505080925050509291505056fea26469706673582212207d3c4cc9a6977fbc5d16b0044ab9b53d2ac6c356ebec4cdacce8dc7dbdea8a6764736f6c634300080a0033",
  "immutableReferences": {},
  "source": "// SPDX-License-Identifier: MIT\r\npragma solidity ^0.8.6;\r\n\r\ncontract Poll {\r\n    // Address that creates voting program\r\n    address public owner;\r\n\r\n    // Program Title\r\n    string public title;\r\n\r\n    // Program Description\r\n    string public description;\r\n\r\n    // To check if results have been announced\r\n    bool public isResultAnnounced;\r\n\r\n    // To store all the addresses who have already voted\r\n    mapping(address => bool) public voters;\r\n\r\n    // Option struct\r\n    struct Option {\r\n        string name;\r\n        uint256 count;\r\n    }\r\n\r\n    // Number of options\r\n    uint256 public nOptions = 0;\r\n\r\n    // Mapping for counting votes to each option\r\n    mapping(uint256 => Option) private optionCounts;\r\n\r\n    // Mapping for keeping vote count after results announced\r\n    mapping(uint256 => Option) public results;\r\n\r\n    // Index of option with max votes\r\n    uint256 private maxVotesIndex = 0;\r\n\r\n    // Current max votes to any option\r\n    uint256 private maxVotes = 0;\r\n\r\n    // Total votes\r\n    uint256 public totalVotes = 0;\r\n\r\n    // Emitted when results are announced successfully\r\n    event ResultAnnounced(Option winnerOption);\r\n\r\n    constructor(\r\n        address _owner,\r\n        string memory _title,\r\n        string memory _description,\r\n        string[] memory _options\r\n    ) {\r\n        owner = _owner;\r\n        title = _title;\r\n        description = _description;\r\n        nOptions = _options.length;\r\n\r\n        // Create mapping of index => Option(name, count)\r\n        for (uint256 i = 0; i < nOptions; i++) {\r\n            optionCounts[i] = Option(_options[i], 0);\r\n        }\r\n    }\r\n\r\n    // Function to cast vote\r\n    function vote(uint256 index) public {\r\n        // Check if result already announced\r\n        require(!isResultAnnounced, \"Cannot vote after result announcement\");\r\n        // Check if voter has already voted\r\n        require(!voters[msg.sender], \"You have already voted\");\r\n        // Vote for option corresponding to index\r\n        optionCounts[index].count++;\r\n        // Adjust option with maximum votes\r\n        if (optionCounts[index].count > maxVotes) {\r\n            maxVotes = optionCounts[index].count;\r\n            maxVotesIndex = index;\r\n        }\r\n        // Mark as voted\r\n        voters[msg.sender] = true;\r\n        // Increase total votes\r\n        totalVotes++;\r\n    }\r\n\r\n    // Function to announce results which can be called by only owner\r\n    function announceResult() public {\r\n        // Check if results already announced\r\n        require(!isResultAnnounced, \"Result already announced\");\r\n        // Check if caller is owner\r\n        require(msg.sender == owner, \"Only owner can announce result\");\r\n\r\n        // Mark result as announced\r\n        isResultAnnounced = true;\r\n\r\n        // Create public mapping\r\n        for (uint256 i = 0; i < nOptions; i++) {\r\n            results[i] = optionCounts[i];\r\n        }\r\n\r\n        // Emit event along with result data\r\n        emit ResultAnnounced(optionCounts[maxVotesIndex]);\r\n    }\r\n\r\n    // Function to return options\r\n    function getOption(uint256 _index) public view returns (string memory) {\r\n        return optionCounts[_index].name;\r\n    }\r\n\r\n    // Function to get Winner after results announced\r\n    function getWinner() public view returns (Option memory) {\r\n        // Check if results already announced\r\n        require(isResultAnnounced, \"Result not announced yet\");\r\n\r\n        return optionCounts[maxVotesIndex];\r\n    }\r\n}\r\n",
  "sourcePath": "F:\\ethdev\\voting-dapp\\contracts\\Poll.sol",
  "compiler": {
    "name": "solc",
    "version": "0.8.10+commit.fc410830.Emscripten.clang"
  },
  "schemaVersion": "3.4.3",
  "updatedAt": "2021-11-11T15:05:39.730Z",
  "devdoc": {
    "kind": "dev",
    "methods": {},
    "version": 1
  },
  "userdoc": {
    "kind": "user",
    "methods": {},
    "version": 1
  }
}