{
  "contractName": "Poll",
  "abi": [
    {
      "inputs": [
        {
          "internalType": "address",
          "name": "_owner",
          "type": "address"
        },
        {
          "internalType": "string",
          "name": "_title",
          "type": "string"
        },
        {
          "internalType": "string",
          "name": "_description",
          "type": "string"
        },
        {
          "internalType": "string[]",
          "name": "_options",
          "type": "string[]"
        }
      ],
      "stateMutability": "nonpayable",
      "type": "constructor"
    },
    {
      "anonymous": false,
      "inputs": [
        {
          "components": [
            {
              "internalType": "string",
              "name": "name",
              "type": "string"
            },
            {
              "internalType": "uint256",
              "name": "count",
              "type": "uint256"
            }
          ],
          "indexed": false,
          "internalType": "struct Poll.Option",
          "name": "winnerOption",
          "type": "tuple"
        },
        {
          "indexed": false,
          "internalType": "uint256",
          "name": "maxVotes",
          "type": "uint256"
        }
      ],
      "name": "ResultAnnounced",
      "type": "event"
    },
    {
      "inputs": [],
      "name": "description",
      "outputs": [
        {
          "internalType": "string",
          "name": "",
          "type": "string"
        }
      ],
      "stateMutability": "view",
      "type": "function"
    },
    {
      "inputs": [],
      "name": "isResultAnnounced",
      "outputs": [
        {
          "internalType": "bool",
          "name": "",
          "type": "bool"
        }
      ],
      "stateMutability": "view",
      "type": "function"
    },
    {
      "inputs": [],
      "name": "maxVotes",
      "outputs": [
        {
          "internalType": "uint256",
          "name": "",
          "type": "uint256"
        }
      ],
      "stateMutability": "view",
      "type": "function"
    },
    {
      "inputs": [],
      "name": "maxVotesIndex",
      "outputs": [
        {
          "internalType": "uint256",
          "name": "",
          "type": "uint256"
        }
      ],
      "stateMutability": "view",
      "type": "function"
    },
    {
      "inputs": [],
      "name": "nOptions",
      "outputs": [
        {
          "internalType": "uint256",
          "name": "",
          "type": "uint256"
        }
      ],
      "stateMutability": "view",
      "type": "function"
    },
    {
      "inputs": [
        {
          "internalType": "uint256",
          "name": "",
          "type": "uint256"
        }
      ],
      "name": "optionCounts",
      "outputs": [
        {
          "internalType": "string",
          "name": "name",
          "type": "string"
        },
        {
          "internalType": "uint256",
          "name": "count",
          "type": "uint256"
        }
      ],
      "stateMutability": "view",
      "type": "function"
    },
    {
      "inputs": [],
      "name": "owner",
      "outputs": [
        {
          "internalType": "address",
          "name": "",
          "type": "address"
        }
      ],
      "stateMutability": "view",
      "type": "function"
    },
    {
      "inputs": [],
      "name": "title",
      "outputs": [
        {
          "internalType": "string",
          "name": "",
          "type": "string"
        }
      ],
      "stateMutability": "view",
      "type": "function"
    },
    {
      "inputs": [],
      "name": "totalVotes",
      "outputs": [
        {
          "internalType": "uint256",
          "name": "",
          "type": "uint256"
        }
      ],
      "stateMutability": "view",
      "type": "function"
    },
    {
      "inputs": [
        {
          "internalType": "address",
          "name": "",
          "type": "address"
        }
      ],
      "name": "voters",
      "outputs": [
        {
          "internalType": "bool",
          "name": "",
          "type": "bool"
        }
      ],
      "stateMutability": "view",
      "type": "function"
    },
    {
      "inputs": [
        {
          "internalType": "uint256",
          "name": "index",
          "type": "uint256"
        }
      ],
      "name": "vote",
      "outputs": [],
      "stateMutability": "nonpayable",
      "type": "function"
    },
    {
      "inputs": [],
      "name": "announceResult",
      "outputs": [],
      "stateMutability": "nonpayable",
      "type": "function"
    }
  ],
  "bytecode": "0x608060405260006006556000600755600060085560006009553480156200002557600080fd5b5060405162000be038038062000be08339810160408190526200004891620002ad565b600080546001600160a01b0319166001600160a01b03861617905582516200007890600190602086019062000129565b5081516200008e90600290602085019062000129565b50805160065560005b6006548110156200011e576040518060400160405280838381518110620000c257620000c2620003ee565b60209081029190910181015182526000918101829052838252600581526040909120825180519192620000fb9284929091019062000129565b506020919091015160019091015580620001158162000404565b91505062000097565b50505050506200046b565b82805462000137906200042e565b90600052602060002090601f0160209004810192826200015b5760008555620001a6565b82601f106200017657805160ff1916838001178555620001a6565b82800160010185558215620001a6579182015b82811115620001a657825182559160200191906001019062000189565b50620001b4929150620001b8565b5090565b5b80821115620001b45760008155600101620001b9565b634e487b7160e01b600052604160045260246000fd5b604051601f8201601f191681016001600160401b0381118282101715620002105762000210620001cf565b604052919050565b600082601f8301126200022a57600080fd5b81516001600160401b03811115620002465762000246620001cf565b60206200025c601f8301601f19168201620001e5565b82815285828487010111156200027157600080fd5b60005b838110156200029157858101830151828201840152820162000274565b83811115620002a35760008385840101525b5095945050505050565b60008060008060808587031215620002c457600080fd5b84516001600160a01b0381168114620002dc57600080fd5b602086810151919550906001600160401b0380821115620002fc57600080fd5b6200030a89838a0162000218565b955060408801519150808211156200032157600080fd5b6200032f89838a0162000218565b945060608801519150808211156200034657600080fd5b818801915088601f8301126200035b57600080fd5b815181811115620003705762000370620001cf565b8060051b62000381858201620001e5565b918252838101850191858101908c8411156200039c57600080fd5b86860192505b83831015620003dd57825185811115620003bc5760008081fd5b620003cc8e89838a010162000218565b8352509186019190860190620003a2565b999c989b5096995050505050505050565b634e487b7160e01b600052603260045260246000fd5b60006000198214156200042757634e487b7160e01b600052601160045260246000fd5b5060010190565b600181811c908216806200044357607f821691505b602082108114156200046557634e487b7160e01b600052602260045260246000fd5b50919050565b610765806200047b6000396000f3fe608060405234801561001057600080fd5b50600436106100b45760003560e01c80638da5cb5b116100715780638da5cb5b14610119578063a3ec138d14610144578063b0d2616814610177578063b6cef8d214610198578063e0644712146101a1578063f4e11bbe146101ae57600080fd5b80630121b93f146100b95780630cf0ad65146100ce5780630d15fd77146100ea5780634a79d50c146100f35780637284e41614610108578063777c3acf14610110575b600080fd5b6100cc6100c7366004610544565b6101b6565b005b6100d760065481565b6040519081526020015b60405180910390f35b6100d760095481565b6100fb6102fd565b6040516100e191906105aa565b6100fb61038b565b6100d760085481565b60005461012c906001600160a01b031681565b6040516001600160a01b0390911681526020016100e1565b6101676101523660046105c4565b60046020526000908152604090205460ff1681565b60405190151581526020016100e1565b61018a610185366004610544565b610398565b6040516100e19291906105ed565b6100d760075481565b6003546101679060ff1681565b6100cc61043c565b60035460ff161561021c5760405162461bcd60e51b815260206004820152602560248201527f43616e6e6f7420766f746520616674657220726573756c7420616e6e6f756e63604482015264195b595b9d60da1b60648201526084015b60405180910390fd5b3360009081526004602052604090205460ff16156102755760405162461bcd60e51b8152602060048201526016602482015275165bdd481a185d9948185b1c9958591e481d9bdd195960521b6044820152606401610213565b60008181526005602052604081206001018054916102928361060f565b909155505060085460008281526005602052604090206001015411156102cd5760008181526005602052604090206001015460085560078190555b336000908152600460205260408120805460ff1916600117905560098054916102f58361060f565b919050555050565b6001805461030a90610638565b80601f016020809104026020016040519081016040528092919081815260200182805461033690610638565b80156103835780601f1061035857610100808354040283529160200191610383565b820191906000526020600020905b81548152906001019060200180831161036657829003601f168201915b505050505081565b6002805461030a90610638565b6005602052600090815260409020805481906103b390610638565b80601f01602080910402602001604051908101604052809291908181526020018280546103df90610638565b801561042c5780601f106104015761010080835404028352916020019161042c565b820191906000526020600020905b81548152906001019060200180831161040f57829003601f168201915b5050505050908060010154905082565b60035460ff161561048f5760405162461bcd60e51b815260206004820152601860248201527f526573756c7420616c726561647920616e6e6f756e63656400000000000000006044820152606401610213565b6000546001600160a01b031633146104e95760405162461bcd60e51b815260206004820152601e60248201527f4f6e6c79206f776e65722063616e20616e6e6f756e636520726573756c7400006044820152606401610213565b6003805460ff191660011790556007546000908152600560205260409081902060085491517f7fc6431e745134caccb8fdee54ab56186cdc3d79b57b3a4580eb8745a9d5e77d9261053a9291610673565b60405180910390a1565b60006020828403121561055657600080fd5b5035919050565b6000815180845260005b8181101561058357602081850181015186830182015201610567565b81811115610595576000602083870101525b50601f01601f19169290920160200192915050565b6020815260006105bd602083018461055d565b9392505050565b6000602082840312156105d657600080fd5b81356001600160a01b03811681146105bd57600080fd5b604081526000610600604083018561055d565b90508260208301529392505050565b600060001982141561063157634e487b7160e01b600052601160045260246000fd5b5060010190565b600181811c9082168061064c57607f821691505b6020821081141561066d57634e487b7160e01b600052602260045260246000fd5b50919050565b60408152604080820152600080845481600182811c91508083168061069957607f831692505b60208084108214156106b957634e487b7160e01b86526022600452602486fd5b6080880184905260a088018280156106d857600181146106e957610714565b60ff19871682528282019750610714565b60008c81526020902060005b8781101561070e578154848201529086019084016106f5565b83019850505b5050989091015460608701525050509390910191909152509056fea2646970667358221220e567c80423602343a1b05938f32472341f5921a95dfc2415ec0354dc63b26c8b64736f6c63430008090033",
  "immutableReferences": {},
  "source": "// SPDX-License-Identifier: MIT\r\npragma solidity ^0.8.6;\r\n\r\ncontract Poll {\r\n    // Address that creates voting program\r\n    address public owner;\r\n\r\n    // Program Title\r\n    string public title;\r\n\r\n    // Program Description\r\n    string public description;\r\n\r\n    // To check if results have been announced\r\n    bool public isResultAnnounced;\r\n\r\n    // To store all the addresses who have already voted\r\n    mapping(address => bool) public voters;\r\n\r\n    // Option struct\r\n    struct Option {\r\n        string name;\r\n        uint256 count;\r\n    }\r\n\r\n    // Mapping for counting votes to each option\r\n    mapping(uint256 => Option) public optionCounts;\r\n\r\n    // Number of options\r\n    uint256 public nOptions = 0;\r\n\r\n    // Index of option with max votes\r\n    uint256 public maxVotesIndex = 0;\r\n\r\n    // Current max votes to any option\r\n    uint256 public maxVotes = 0;\r\n\r\n    // Total votes\r\n    uint256 public totalVotes = 0;\r\n\r\n    // Emitted when results are announced successfully\r\n    event ResultAnnounced(Option winnerOption, uint256 maxVotes);\r\n\r\n    constructor(\r\n        address _owner,\r\n        string memory _title,\r\n        string memory _description,\r\n        string[] memory _options\r\n    ) {\r\n        owner = _owner;\r\n        title = _title;\r\n        description = _description;\r\n        nOptions = _options.length;\r\n\r\n        // Create mapping of index => Option(name, count)\r\n        for (uint256 i = 0; i < nOptions; i++) {\r\n            optionCounts[i] = Option(_options[i], 0);\r\n        }\r\n    }\r\n\r\n    // Function to cast vote\r\n    function vote(uint256 index) public {\r\n        // Check if result already announced\r\n        require(!isResultAnnounced, \"Cannot vote after result announcement\");\r\n        // Check if voter has already voted\r\n        require(!voters[msg.sender], \"You have already voted\");\r\n        // Vote for option corresponding to index\r\n        optionCounts[index].count++;\r\n        // Adjust option with maximum votes\r\n        if (optionCounts[index].count > maxVotes) {\r\n            maxVotes = optionCounts[index].count;\r\n            maxVotesIndex = index;\r\n        }\r\n        // Mark as voted\r\n        voters[msg.sender] = true;\r\n        // Increase total votes\r\n        totalVotes++;\r\n    }\r\n\r\n    // Function to announce results which can be called by only owner\r\n    function announceResult() public {\r\n        // Check if results already announced\r\n        require(!isResultAnnounced, \"Result already announced\");\r\n        // Check if caller is owner\r\n        require(msg.sender == owner, \"Only owner can announce result\");\r\n\r\n        // Mark result as announced\r\n        isResultAnnounced = true;\r\n\r\n        // Emit event along with result data\r\n        emit ResultAnnounced(optionCounts[maxVotesIndex], maxVotes);\r\n    }\r\n}\r\n",
  "sourcePath": "F:\\ethdev\\voting-dapp\\contracts\\Poll.sol",
  "compiler": {
    "name": "solc",
    "version": "0.8.9+commit.e5eed63a.Emscripten.clang"
  },
  "schemaVersion": "3.4.3",
  "updatedAt": "2021-10-11T18:26:18.370Z",
  "devdoc": {
    "kind": "dev",
    "methods": {},
    "version": 1
  },
  "userdoc": {
    "kind": "user",
    "methods": {},
    "version": 1
  }
}