{
  "contractName": "Voting",
  "abi": [
    {
      "inputs": [
        {
          "internalType": "string",
          "name": "_title",
          "type": "string"
        },
        {
          "internalType": "string",
          "name": "_description",
          "type": "string"
        }
      ],
      "stateMutability": "nonpayable",
      "type": "constructor"
    },
    {
      "anonymous": false,
      "inputs": [
        {
          "indexed": false,
          "internalType": "uint256",
          "name": "countA",
          "type": "uint256"
        },
        {
          "indexed": false,
          "internalType": "uint256",
          "name": "countB",
          "type": "uint256"
        }
      ],
      "name": "ResultAnnounced",
      "type": "event"
    },
    {
      "inputs": [],
      "name": "countA",
      "outputs": [
        {
          "internalType": "uint256",
          "name": "",
          "type": "uint256"
        }
      ],
      "stateMutability": "view",
      "type": "function"
    },
    {
      "inputs": [],
      "name": "countB",
      "outputs": [
        {
          "internalType": "uint256",
          "name": "",
          "type": "uint256"
        }
      ],
      "stateMutability": "view",
      "type": "function"
    },
    {
      "inputs": [],
      "name": "description",
      "outputs": [
        {
          "internalType": "string",
          "name": "",
          "type": "string"
        }
      ],
      "stateMutability": "view",
      "type": "function"
    },
    {
      "inputs": [],
      "name": "isResultAnnounced",
      "outputs": [
        {
          "internalType": "bool",
          "name": "",
          "type": "bool"
        }
      ],
      "stateMutability": "view",
      "type": "function"
    },
    {
      "inputs": [],
      "name": "owner",
      "outputs": [
        {
          "internalType": "address",
          "name": "",
          "type": "address"
        }
      ],
      "stateMutability": "view",
      "type": "function"
    },
    {
      "inputs": [],
      "name": "title",
      "outputs": [
        {
          "internalType": "string",
          "name": "",
          "type": "string"
        }
      ],
      "stateMutability": "view",
      "type": "function"
    },
    {
      "inputs": [
        {
          "internalType": "address",
          "name": "",
          "type": "address"
        }
      ],
      "name": "voters",
      "outputs": [
        {
          "internalType": "bool",
          "name": "",
          "type": "bool"
        }
      ],
      "stateMutability": "view",
      "type": "function"
    },
    {
      "inputs": [
        {
          "internalType": "bool",
          "name": "isA",
          "type": "bool"
        }
      ],
      "name": "vote",
      "outputs": [],
      "stateMutability": "nonpayable",
      "type": "function"
    },
    {
      "inputs": [],
      "name": "announceResult",
      "outputs": [],
      "stateMutability": "nonpayable",
      "type": "function"
    }
  ],
  "bytecode": "0x608060405234801561001057600080fd5b506040516107ce3803806107ce83398101604081905261002f916101b5565b600080546001600160a01b031916331790558151610054906003906020850190610070565b508051610068906004906020840190610070565b505050610269565b82805461007c90610218565b90600052602060002090601f01602090048101928261009e57600085556100e4565b82601f106100b757805160ff19168380011785556100e4565b828001600101855582156100e4579182015b828111156100e45782518255916020019190600101906100c9565b506100f09291506100f4565b5090565b5b808211156100f057600081556001016100f5565b600082601f83011261011a57600080fd5b81516001600160401b038082111561013457610134610253565b604051601f8301601f19908116603f0116810190828211818310171561015c5761015c610253565b8160405283815260209250868385880101111561017857600080fd5b600091505b8382101561019a578582018301518183018401529082019061017d565b838211156101ab5760008385830101525b9695505050505050565b600080604083850312156101c857600080fd5b82516001600160401b03808211156101df57600080fd5b6101eb86838701610109565b9350602085015191508082111561020157600080fd5b5061020e85828601610109565b9150509250929050565b600181811c9082168061022c57607f821691505b6020821081141561024d57634e487b7160e01b600052602260045260246000fd5b50919050565b634e487b7160e01b600052604160045260246000fd5b610556806102786000396000f3fe608060405234801561001057600080fd5b50600436106100935760003560e01c80638da5cb5b116100665780638da5cb5b146100ea57806393e43cd314610115578063a3ec138d1461011e578063e064471214610151578063f4e11bbe1461015e57600080fd5b80634a79d50c146100985780634b9f5c98146100b657806361511eda146100cb5780637284e416146100e2575b600080fd5b6100a0610166565b6040516100ad9190610467565b60405180910390f35b6100c96100c4366004610445565b6101f4565b005b6100d460015481565b6040519081526020016100ad565b6100a0610306565b6000546100fd906001600160a01b031681565b6040516001600160a01b0390911681526020016100ad565b6100d460025481565b61014161012c366004610415565b60066020526000908152604090205460ff1681565b60405190151581526020016100ad565b6005546101419060ff1681565b6100c9610313565b60038054610173906104bc565b80601f016020809104026020016040519081016040528092919081815260200182805461019f906104bc565b80156101ec5780601f106101c1576101008083540402835291602001916101ec565b820191906000526020600020905b8154815290600101906020018083116101cf57829003601f168201915b505050505081565b60055460ff161561025a5760405162461bcd60e51b815260206004820152602560248201527f43616e6e6f7420766f746520616674657220726573756c7420616e6e6f756e63604482015264195b595b9d60da1b60648201526084015b60405180910390fd5b3360009081526006602052604090205460ff16156102b35760405162461bcd60e51b8152602060048201526016602482015275165bdd481a185d9948185b1c9958591e481d9bdd195960521b6044820152606401610251565b80156102d357600180549060006102c9836104f7565b91905055506102e9565b600280549060006102e3836104f7565b91905055505b50336000908152600660205260409020805460ff19166001179055565b60048054610173906104bc565b60055460ff16156103665760405162461bcd60e51b815260206004820152601860248201527f526573756c7420616c726561647920616e6e6f756e63656400000000000000006044820152606401610251565b6000546001600160a01b031633146103c05760405162461bcd60e51b815260206004820152601e60248201527f4f6e6c79206f776e65722063616e20616e6e6f756e636520726573756c7400006044820152606401610251565b6005805460ff19166001908117909155546002546040517ff70a893b383704038abe495833789918f1f6d9c5f28921df262d13b9643365149261040b92908252602082015260400190565b60405180910390a1565b60006020828403121561042757600080fd5b81356001600160a01b038116811461043e57600080fd5b9392505050565b60006020828403121561045757600080fd5b8135801515811461043e57600080fd5b600060208083528351808285015260005b8181101561049457858101830151858201604001528201610478565b818111156104a6576000604083870101525b50601f01601f1916929092016040019392505050565b600181811c908216806104d057607f821691505b602082108114156104f157634e487b7160e01b600052602260045260246000fd5b50919050565b600060001982141561051957634e487b7160e01b600052601160045260246000fd5b506001019056fea264697066735822122017253544a048fab63275ef2e760404403d994d9d4c826b86eaf699fd308f008e64736f6c63430008070033",
  "immutableReferences": {},
  "source": "// SPDX-License-Identifier: MIT\npragma solidity ^0.8.6;\n\ncontract Voting {\n    // Address that creates voting program\n    address public owner;\n\n    // Count of votes to A\n    uint256 public countA;\n\n    // Count of votes to B\n    uint256 public countB;\n\n    // Program Title\n    string public title;\n\n    // Program Description\n    string public description;\n\n    // To check if results have been announced\n    bool public isResultAnnounced;\n\n    // To store all the addresses who have already voted\n    mapping(address => bool) public voters;\n\n    // Emitted when results are announced successfully\n    event ResultAnnounced(uint256 countA, uint256 countB);\n\n    constructor(string memory _title, string memory _description) {\n        // To check _title and _description are not empty strings\n        // require(_title != \"\", \"No title provided\");\n        // require(_description != \"\", \"No description provided\");\n\n        owner = msg.sender;\n        title = _title;\n        description = _description;\n    }\n\n    // Function to cast vote to either A or B\n    function vote(bool isA) public {\n        // Check if result already announced\n        require(!isResultAnnounced, \"Cannot vote after result announcement\");\n        // Check if voter has already voted\n        require(!voters[msg.sender], \"You have already voted\");\n\n        // If true then vote for A else B\n        if (isA) {\n            countA++;\n        } else {\n            countB++;\n        }\n        // Mark as voted\n        voters[msg.sender] = true;\n    }\n\n    // Function to announce results which can be called by only owner\n    function announceResult() public {\n        // Check if results already announced\n        require(!isResultAnnounced, \"Result already announced\");\n        // Check if caller is owner\n        require(msg.sender == owner, \"Only owner can announce result\");\n\n        // Mark result as announced\n        isResultAnnounced = true;\n\n        // Emit event along with result data\n        emit ResultAnnounced(countA, countB);\n    }\n}\n",
  "sourcePath": "/Users/hrushi/Projects/Crypto/voting/contracts/Voting.sol",
  "compiler": {
    "name": "solc",
    "version": "0.8.7+commit.e28d00a7.Emscripten.clang"
  },
  "schemaVersion": "3.4.3",
  "updatedAt": "2021-09-15T10:15:59.280Z",
  "devdoc": {
    "kind": "dev",
    "methods": {},
    "version": 1
  },
  "userdoc": {
    "kind": "user",
    "methods": {},
    "version": 1
  }
}