{
  "contractName": "Voting",
  "abi": [
    {
      "inputs": [
        {
          "internalType": "string",
          "name": "_title",
          "type": "string"
        },
        {
          "internalType": "string",
          "name": "_description",
          "type": "string"
        },
        {
          "internalType": "string[]",
          "name": "_options",
          "type": "string[]"
        }
      ],
      "stateMutability": "nonpayable",
      "type": "constructor"
    },
    {
      "anonymous": false,
      "inputs": [
        {
          "components": [
            {
              "internalType": "string",
              "name": "name",
              "type": "string"
            },
            {
              "internalType": "uint256",
              "name": "count",
              "type": "uint256"
            }
          ],
          "indexed": false,
          "internalType": "struct Voting.Option",
          "name": "winnerOption",
          "type": "tuple"
        },
        {
          "indexed": false,
          "internalType": "uint256",
          "name": "maxVotes",
          "type": "uint256"
        }
      ],
      "name": "ResultAnnounced",
      "type": "event"
    },
    {
      "inputs": [],
      "name": "description",
      "outputs": [
        {
          "internalType": "string",
          "name": "",
          "type": "string"
        }
      ],
      "stateMutability": "view",
      "type": "function",
      "constant": true
    },
    {
      "inputs": [],
      "name": "isResultAnnounced",
      "outputs": [
        {
          "internalType": "bool",
          "name": "",
          "type": "bool"
        }
      ],
      "stateMutability": "view",
      "type": "function",
      "constant": true
    },
    {
      "inputs": [],
      "name": "maxVotes",
      "outputs": [
        {
          "internalType": "uint256",
          "name": "",
          "type": "uint256"
        }
      ],
      "stateMutability": "view",
      "type": "function",
      "constant": true
    },
    {
      "inputs": [],
      "name": "maxVotesIndex",
      "outputs": [
        {
          "internalType": "uint256",
          "name": "",
          "type": "uint256"
        }
      ],
      "stateMutability": "view",
      "type": "function",
      "constant": true
    },
    {
      "inputs": [],
      "name": "nOptions",
      "outputs": [
        {
          "internalType": "uint256",
          "name": "",
          "type": "uint256"
        }
      ],
      "stateMutability": "view",
      "type": "function",
      "constant": true
    },
    {
      "inputs": [
        {
          "internalType": "uint256",
          "name": "",
          "type": "uint256"
        }
      ],
      "name": "optionCounts",
      "outputs": [
        {
          "internalType": "string",
          "name": "name",
          "type": "string"
        },
        {
          "internalType": "uint256",
          "name": "count",
          "type": "uint256"
        }
      ],
      "stateMutability": "view",
      "type": "function",
      "constant": true
    },
    {
      "inputs": [],
      "name": "owner",
      "outputs": [
        {
          "internalType": "address",
          "name": "",
          "type": "address"
        }
      ],
      "stateMutability": "view",
      "type": "function",
      "constant": true
    },
    {
      "inputs": [],
      "name": "title",
      "outputs": [
        {
          "internalType": "string",
          "name": "",
          "type": "string"
        }
      ],
      "stateMutability": "view",
      "type": "function",
      "constant": true
    },
    {
      "inputs": [
        {
          "internalType": "address",
          "name": "",
          "type": "address"
        }
      ],
      "name": "voters",
      "outputs": [
        {
          "internalType": "bool",
          "name": "",
          "type": "bool"
        }
      ],
      "stateMutability": "view",
      "type": "function",
      "constant": true
    },
    {
      "inputs": [
        {
          "internalType": "uint256",
          "name": "index",
          "type": "uint256"
        }
      ],
      "name": "vote",
      "outputs": [],
      "stateMutability": "nonpayable",
      "type": "function"
    },
    {
      "inputs": [],
      "name": "announceResult",
      "outputs": [],
      "stateMutability": "nonpayable",
      "type": "function"
    }
  ],
  "bytecode": "0x60806040526000600655600060075560006008553480156200002057600080fd5b5060405162000b8a38038062000b8a833981016040819052620000439162000255565b600080546001600160a01b0319163317905582516200006a9060019060208601906200011a565b508151620000809060029060208501906200011a565b50805160065560005b60065481101562000110576040518060400160405280838381518110620000b457620000b462000410565b60209081029190910181015182526000918101829052838252600581526040909120825180519192620000ed928492909101906200011a565b5060209190910151600190910155806200010781620003e6565b91505062000089565b505050506200043c565b8280546200012890620003a9565b90600052602060002090601f0160209004810192826200014c576000855562000197565b82601f106200016757805160ff191683800117855562000197565b8280016001018555821562000197579182015b82811115620001975782518255916020019190600101906200017a565b50620001a5929150620001a9565b5090565b5b80821115620001a55760008155600101620001aa565b600082601f830112620001d257600080fd5b81516001600160401b03811115620001ee57620001ee62000426565b602062000204601f8301601f1916820162000376565b82815285828487010111156200021957600080fd5b60005b83811015620002395785810183015182820184015282016200021c565b838111156200024b5760008385840101525b5095945050505050565b6000806000606084860312156200026b57600080fd5b83516001600160401b03808211156200028357600080fd5b6200029187838801620001c0565b9450602091508186015181811115620002a957600080fd5b620002b788828901620001c0565b945050604086015181811115620002cd57600080fd5b8601601f81018813620002df57600080fd5b805182811115620002f457620002f462000426565b8060051b6200030585820162000376565b8281528581019084870183860188018d10156200032157600080fd5b60009350835b8581101562000363578151888111156200033f578586fd5b6200034f8f8b838b0101620001c0565b855250928801929088019060010162000327565b5050809750505050505050509250925092565b604051601f8201601f191681016001600160401b0381118282101715620003a157620003a162000426565b604052919050565b600181811c90821680620003be57607f821691505b60208210811415620003e057634e487b7160e01b600052602260045260246000fd5b50919050565b60006000198214156200040957634e487b7160e01b600052601160045260246000fd5b5060010190565b634e487b7160e01b600052603260045260246000fd5b634e487b7160e01b600052604160045260246000fd5b61073e806200044c6000396000f3fe608060405234801561001057600080fd5b50600436106100a95760003560e01c80638da5cb5b116100715780638da5cb5b14610105578063a3ec138d14610130578063b0d2616814610163578063b6cef8d214610184578063e06447121461018d578063f4e11bbe1461019a57600080fd5b80630121b93f146100ae5780630cf0ad65146100c35780634a79d50c146100df5780637284e416146100f4578063777c3acf146100fc575b600080fd5b6100c16100bc36600461054d565b6101a2565b005b6100cc60065481565b6040519081526020015b60405180910390f35b6100e76102d6565b6040516100d691906105b3565b6100e7610364565b6100cc60085481565b600054610118906001600160a01b031681565b6040516001600160a01b0390911681526020016100d6565b61015361013e36600461051d565b60046020526000908152604090205460ff1681565b60405190151581526020016100d6565b61017661017136600461054d565b610371565b6040516100d69291906105c6565b6100cc60075481565b6003546101539060ff1681565b6100c1610415565b60035460ff16156102085760405162461bcd60e51b815260206004820152602560248201527f43616e6e6f7420766f746520616674657220726573756c7420616e6e6f756e63604482015264195b595b9d60da1b60648201526084015b60405180910390fd5b3360009081526004602052604090205460ff16156102615760405162461bcd60e51b8152602060048201526016602482015275165bdd481a185d9948185b1c9958591e481d9bdd195960521b60448201526064016101ff565b600081815260056020526040812060010180549161027e836106df565b909155505060085460008281526005602052604090206001015411156102b95760008181526005602052604090206001015460085560078190555b50336000908152600460205260409020805460ff19166001179055565b600180546102e3906106a4565b80601f016020809104026020016040519081016040528092919081815260200182805461030f906106a4565b801561035c5780601f106103315761010080835404028352916020019161035c565b820191906000526020600020905b81548152906001019060200180831161033f57829003601f168201915b505050505081565b600280546102e3906106a4565b60056020526000908152604090208054819061038c906106a4565b80601f01602080910402602001604051908101604052809291908181526020018280546103b8906106a4565b80156104055780601f106103da57610100808354040283529160200191610405565b820191906000526020600020905b8154815290600101906020018083116103e857829003601f168201915b5050505050908060010154905082565b60035460ff16156104685760405162461bcd60e51b815260206004820152601860248201527f526573756c7420616c726561647920616e6e6f756e636564000000000000000060448201526064016101ff565b6000546001600160a01b031633146104c25760405162461bcd60e51b815260206004820152601e60248201527f4f6e6c79206f776e65722063616e20616e6e6f756e636520726573756c74000060448201526064016101ff565b6003805460ff191660011790556007546000908152600560205260409081902060085491517f7fc6431e745134caccb8fdee54ab56186cdc3d79b57b3a4580eb8745a9d5e77d9261051392916105e8565b60405180910390a1565b60006020828403121561052f57600080fd5b81356001600160a01b038116811461054657600080fd5b9392505050565b60006020828403121561055f57600080fd5b5035919050565b6000815180845260005b8181101561058c57602081850181015186830182015201610570565b8181111561059e576000602083870101525b50601f01601f19169290920160200192915050565b6020815260006105466020830184610566565b6040815260006105d96040830185610566565b90508260208301529392505050565b60408152604080820152600080845481600182811c91508083168061060e57607f831692505b602080841082141561062e57634e487b7160e01b86526022600452602486fd5b6080880184905260a0880182801561064d576001811461065e57610689565b60ff19871682528282019750610689565b60008c81526020902060005b878110156106835781548482015290860190840161066a565b83019850505b50509890910154606087015250505093909101919091525090565b600181811c908216806106b857607f821691505b602082108114156106d957634e487b7160e01b600052602260045260246000fd5b50919050565b600060001982141561070157634e487b7160e01b600052601160045260246000fd5b506001019056fea264697066735822122043e7742dfe49bcd5228572f93f049d26ac04dad9ed0b8b0a4f85c9a6ea1ab7f664736f6c63430008070033",
  "immutableReferences": {},
  "source": "// SPDX-License-Identifier: MIT\npragma solidity ^0.8.6;\n\ncontract Voting {\n    // Address that creates voting program\n    address public owner;\n\n    // Program Title\n    string public title;\n\n    // Program Description\n    string public description;\n\n    // To check if results have been announced\n    bool public isResultAnnounced;\n\n    // To store all the addresses who have already voted\n    mapping(address => bool) public voters;\n\n    // Option struct\n    struct Option {\n        string name;\n        uint256 count;\n    }\n\n    // Mapping for counting votes to each option\n    mapping(uint256=>Option) public optionCounts;\n\n    // Number of options\n    uint256 public nOptions = 0;\n\n    // Index of option with max votes\n    uint256 public maxVotesIndex = 0;\n\n    // Current max votes to any option\n    uint256 public maxVotes = 0;\n\n    // Emitted when results are announced successfully\n    event ResultAnnounced(Option winnerOption, uint256 maxVotes);\n\n    constructor(string memory _title, string memory _description, string[] memory _options) {\n        // To check _title, _description and _options are not empty strings\n        // require(_title != \"\", \"No title provided\");\n        // require(_description != \"\", \"No description provided\");\n\n        owner = msg.sender;\n        title = _title;\n        description = _description;\n        nOptions = _options.length;\n        // Create mapping of index => Option(name, count)\n        for(uint256 i=0; i<nOptions; i++){\n            optionCounts[i] = Option(_options[i], 0);\n        }\n    }\n\n    // Function to cast vote\n    function vote(uint256 index) public {\n        // Check if result already announced\n        require(!isResultAnnounced, \"Cannot vote after result announcement\");\n        // Check if voter has already voted\n        require(!voters[msg.sender], \"You have already voted\");\n        // Vote for option corresponding to index\n        optionCounts[index].count++;\n        // Adjust option with maximum votes\n        if(optionCounts[index].count > maxVotes) {\n            maxVotes = optionCounts[index].count;\n            maxVotesIndex = index;\n        }\n        // Mark as voted\n        voters[msg.sender] = true;\n    }\n\n    // Function to announce results which can be called by only owner\n    function announceResult() public {\n        // Check if results already announced\n        require(!isResultAnnounced, \"Result already announced\");\n        // Check if caller is owner\n        require(msg.sender == owner, \"Only owner can announce result\");\n\n        // Mark result as announced\n        isResultAnnounced = true;\n\n        // Emit event along with result data\n        emit ResultAnnounced(optionCounts[maxVotesIndex], maxVotes);\n    }\n}\n",
  "sourcePath": "/Users/hrushi/Projects/Crypto/voting/contracts/Voting.sol",
  "compiler": {
    "name": "solc",
    "version": "0.8.7+commit.e28d00a7.Emscripten.clang"
  },
  "schemaVersion": "3.4.3",
  "updatedAt": "2021-09-24T09:41:15.549Z",
  "networkType": "ethereum",
  "devdoc": {
    "kind": "dev",
    "methods": {},
    "version": 1
  },
  "userdoc": {
    "kind": "user",
    "methods": {},
    "version": 1
  }
}